:020000040800F2
:10000000009B0020A50B0008850600088706000855
:100010008B0600088F060008930600080000000009
:100020000000000000000000000000003D02000889
:1000300097060008000000009102000899060008D9
:10004000BF0B0008BF0B0008BF0B0008BF0B000868
:10005000BF0B0008BF0B0008BF0B0008BF0B000858
:10006000BF0B0008BF0B0008BF0B0008BF0B000848
:10007000BF0B0008BF0B0008BF0B0008BF0B000838
:10008000BF0B0008BF0B0008BF0B0008BF0B000828
:10009000BF0B0008BF0B0008BF0B0008BF0B000818
:1000A000BF0B0008BF0B0008BF0B0008BF0B000808
:1000B000BF0B0008BF0B0008BF0B0008BF0B0008F8
:1000C000BF0B0008BF0B0008BF0B0008BF0B0008E8
:1000D000BF0B0008FD090008BF0B0008BF0B00089C
:1000E000BF0B0008BF0B0008BF0B0008BF0B0008C8
:1000F000BF0B0008BF0B0008BF0B0008BF0B0008B8
:10010000BF0B0008BF0B0008BF0B0008BF0B0008A7
:10011000BF0B0008BF0B0008BF0B0008BF0B000897
:10012000BF0B0008BF0B0008BF0B0008BF0B000887
:10013000BF0B0008BF0B0008BF0B0008BF0B000877
:10014000BF0B0008BF0B0008BF0B0008BF0B000867
:10015000BF0B0008BF0B0008BF0B0008BF0B000857
:10016000BF0B0008BF0B0008BF0B0008BF0B000847
:10017000BF0B0008BF0B0008BF0B0008BF0B000837
:10018000BF0B0008BF0B000800F002F800F047F8B2
:100190000AA090E8000C82448344AAF10107DA45E2
:1001A00001D100F03CF8AFF2090EBAE80F0013F0ED
:1001B000010F18BFFB1A43F00103184780400000ED
:1001C000A0400000103A24BF78C878C1FAD852077E
:1001D00024BF30C830C144BF04680C6070470000C1
:1001E0000023002400250026103A28BF78C1FBD840
:1001F000520728BF30C148BF0B607047642903F025
:10020000F785782903F03086732903F06987002089
:1002100070471FB503F0F8FF1FBD10B510BD03F008
:10022000C3FF1146FFF7F5FF00F03DF903F0E1FFD2
:1002300003B4FFF7F2FF03BC00F03AFB2A4B196846
:100240000868B0E8F04F80F30988BFF36F8F4FF074
:10025000000080F311887047000000000648006825
:10026000006880F3088862B661B6BFF34F8FBFF3B2
:100270006F8F00DF00BF00BF08ED00E0DFF80C006B
:10028000016841F470010160704700BF88ED00E033
:10029000EFF30980BFF36F8F134B1A681EF0100F36
:1002A00008BF20ED108A20E9F04F106008B44FF02D
:1002B000500080F31188BFF34F8FBFF36F8F02F0B0
:1002C00039FD4FF0000080F3118808BC19680868F8
:1002D000B0E8F04F1EF0100F08BFB0EC108A80F3AA
:1002E0000988BFF36F8F704744000020EFF305804B
:1002F0007047000008B516E000235A1E694678488A
:10030000006801F097FE77490860084600680128F8
:1003100004D175A0009903F035FD04E0714801682F
:1003200078A003F02FFDE7E723E0002000F0E8FBD2
:100330000446012C02D0022C16D10AE079A003F069
:1003400021FD7C48006802F02EFD7BA003F01AFD21
:100350000EE07EA003F016FD7648006802F0A8FDCE
:100360007EA003F00FFD03E0C82002F0C1FB00BF38
:1003700000BFDAE708B5002000902EE0009864285E
:1003800002DD0020009002E00098401C0090402117
:10039000774800F09BFD8021754800F095FD0A200C
:1003A00002F0A6FB4021724800F08EFD80217048CB
:1003B00000F08CFD322002F09BFB00231A466946B8
:1003C0004748006801F06BFC464908600846006831
:1003D000012802D067A003F0D5FCCFE71CB503F0DD
:1003E00022FC00220421084601F0AFFB3C490860D2
:1003F0000846006810B167A003F0C4FC4D48022114
:1004000000230A02CDE9001068A16B4802F0F1F860
:100410003449086008460068012802D167A003F04B
:10042000B1FC6C48032100234FF40072CDE90010A9
:1004300069A16C4802F0DDF82A49086008460068A6
:10044000012802D168A003F09DFC6D48042100231F
:10045000CA01CDE900106BA16D4802F0CAF821492C
:10046000086008460068012802D16AA003F08AFCEF
:100470006F48006802F00BF903F0F8FB1CBD10B5E3
:100480004FF4407000F0AEFB00F0FEFA00F01DFAF1
:1004900000F018FB4021364800F018FD8021344858
:1004A00000F014FD10BD1CB50124FFF7E8FF61A0AA
:1004B00003F068FC5E48012100234A02CDE90010E8
:1004C0006BA16F4802F095F80446012C02D102F0AE
:1004D000B3FD02E04FF0FF301CBD00BFFEE700009F
:1004E000140000201000002020B1BEB4CEBDD3CA3D
:1004F000D5B5BDB5C4CAFDBEDDCAC7A3BA25640A59
:100500000A00000020CAFDBEDDBDD3CAD5B3F6B4D3
:10051000ED2C20B4EDCEF3B4FAC2EB3A20307825BE
:100520006C780A00B9D2C6F054657374C8CECEF1A7
:10053000A3A10A0004000020B9D2C6F05465737468
:10054000C8CECEF1B3C9B9A6A3A10A00BBD6B8B430
:1005500054657374C8CECEF1A3A10A00BBD6B8B45B
:1005600054657374C8CECEF1B3C9B9A6A3A10A006D
:100570000000024020CFFBCFA22073656E645F6451
:10058000617461312020B7A2CBCDCAA7B0DC210AAB
:100590000A000000B4B4BDA8546573745F5175655A
:1005A0007565B3C9B9A6210D0A0000004C45445F2A
:1005B0005461736B0000000075030008B4B4BDA85B
:1005C0004C45445F5461736BC8CECEF1B3C9B9A634
:1005D000210D0A00080000204B45595F5461736BE0
:1005E0000000000029030008B4B4BDA84B45595FC2
:1005F0005461736BC8CECEF1B3C9B9A6210D0A0000
:100600000C0000204F4C45445F5461736B000000A8
:10061000F5020008B4B4BDA84F4C45445F54617363
:100620006BC8CECEF1B3C9B9A6210D0A00000000F7
:1006300000000020D5E2CAC7D2BBB8F6BBF9D3DAB6
:100640005BD2B0BBF05D2D53544D3332C8ABCFB548
:10065000C1D0BFAAB7A2B0E52D4672656552544F0E
:1006600053B9CCBCFEBFE2C0FDB3CCA3A10A0A00C3
:100670004170705461736B43726561746500000072
:10068000DD030008704700BFFEE700BFFEE700BFC4
:10069000FEE700BFFEE7704710B503F0FFFA10BD9C
:1006A0000CB50020019000907648006840F480303E
:1006B0007449086000BF7348006800F4003000907F
:1006C0000198401C0190009818B90198B0F5A04F0E
:1006D000F1D16C48006800F4003010B101200090A6
:1006E00001E0002000900098012846D16548403084
:1006F000006840F0805063494031086062480068FB
:1007000040F44040604908605E48083000685D4938
:10071000083108600846006840F400400860084658
:10072000006840F4A05008605848091F0860081F7E
:10073000006840F08070091F086000BF51480068E1
:1007400000F000700028F9D040F2057050490860B0
:100750004C480830006820F003004A49083108601E
:100760000846006840F00200086000BF45480830B5
:10077000006800F00C000828F8D10CBD10B5454801
:10078000006840F47000434908603E48006840F04B
:1007900001003C49086000203A49083108603948A6
:1007A00000683D490840374908603C48091D086019
:1007B000081F006820F48020091F086000203149CC
:1007C0000C310860FFF76CFF4FF000603149803951
:1007D000086010BD70B50020002202230024022111
:1007E000284D08352D6805F00C0020B1042806D0EE
:1007F000082834D107E02A4D2A4E356033E02A4DCF
:10080000284E35602FE01F4D2D1D2D68C5F38054F7
:100810001C4D2D1D2D6805F03F0154B1224DB5FB37
:10082000F1F5184E361D3668C6F3881605FB06F23C
:1008300009E01B4DB5FBF1F5124E361D3668C6F3C7
:10084000881605FB06F20F4D2D1D2D68C5F30145D9
:100850006D1C6B00B2FBF3F5124E356003E0104DDA
:10086000104E356000BF00BF064D08352D68C5F33A
:1008700003150E4E705D0B4D2D68C540094E356059
:1008800070BD00000038024000700040085440076E
:10089000003C024088ED00E0FFFFF6FE103000242F
:1008A0000024F4001800002000127A001C00002030
:1008B00000BF704700BF704A128802F04002002A51
:1008C000F9D0C2B26C4B9A80704700B587B0012155
:1008D000084600F01BFD0121102000F071FD0722E9
:1008E0000921664800F0FFFA07220A21634800F058
:1008F000FAFA4FF4C060059002208DF818008DF8C8
:10090000190000208DF81A0001208DF81B0005A9A0
:100910005A4800F05DFA4FF4E13001900020ADF844
:100920000800ADF80A00ADF80C00ADF810000C207E
:10093000ADF80E0001A9504800F0A3FE01214E4879
:1009400000F027FF40214C4801F00BF8012240F253
:100950002551494800F0D3FF25208DF800000320E1
:100960008DF801008DF8020001208DF80300684623
:1009700000F03DF907B000BD70B504460D462946AC
:10098000204600F031FF00BF8021204600F0DCFF50
:100990000028F9D070BD70B506460C46002500BF92
:1009A000615D3046FFF7E8FF6D1C605D0028F7D100
:1009B00000BF4021304600F0C7FF0028F9D070BDCD
:1009C0002DE9F04105460C46260AE7B23146284695
:1009D00000F00AFF00BF8021284600F0B5FF002884
:1009E000F9D03946284600F0FFFE00BF8021284696
:1009F00000F0AAFF0028F9D0BDE8F08110B540F260
:100A000025511D4800F0B6FF10B31B4800F0F0FE62
:100A1000C4B21B48008800F40040C8B918480088D8
:100A200000F4804060B10A2C03D0002014490880F3
:100A300020E01348008840F400401149088019E084
:100A40000D2C06D10E48008840F480400C490880E7
:100A500010E00B480088C0F30D000A490C54084808
:100A60000088401C0649088008460088C72801DD28
:100A70000020088010BD000000100140000002406E
:100A800030000020A40000201CB50121084600F021
:100A90003DFCC020009001208DF8040000208DF85E
:100AA00006008DF8050001208DF80700694604480E
:100AB00000F08EF9C021024800F006FA1CBD0000CB
:100AC000000002401CB50121112000F01FFC18207D
:100AD000009000208DF8040003208DF8050001200F
:100AE0008DF8070069462C4800F072F9012000904B
:100AF00002208DF807006946284800F069F91CBDFE
:100B000010B5044614B10120254908702448007826
:100B100058B31021204800F0BDF950B108211E48FB
:100B200000F0B8F928B101211C4800F0B3F9012800
:100B30001BD1142001F0DCFF00201949087010219E
:100B4000154800F0A7F908B9012010BD0821124886
:100B500000F0A0F908B90220F7E701210F4800F0E2
:100B600099F9012815D10420EFE710210A4800F077
:100B700091F901280DD10821074800F08BF90128CF
:100B800007D10121054800F085F910B90120044979
:100B900008700020D9E70000001002400000024069
:100BA000320000200948804709480047FEE7FEE779
:100BB000FEE7FEE7FEE7FEE7FEE7FEE7FEE7FEE70D
:100BC00004480549054A064B704700007D070008A8
:100BD0008901000800950020009B0020009700205C
:100BE0000097002032490143324A1160704770B5C6
:100BF000002100230F22C4781CB32E4C246804F477
:100C0000E064C4F5E064C4F30721C1F10404E3B275
:100C10000A4144789C40E1B28478144021430C0797
:100C2000210E254C05786155047804F01F05012438
:100C3000AC4005786D11AD0005F1E025C5F8004127
:100C400009E0047804F01F050124AC401B4D067830
:100C5000761145F8264070BD194A0A400243154BEB
:100C60001B1F1A60704739B1124A121D12680243E5
:100C7000104B1B1D1A6006E00E4A121D12688243BB
:100C80000C4B1B1D1A607047042808D14FF0E0215F
:100C9000096941F004014FF0E022116107E04FF0D3
:100CA000E021096921F004014FF0E0221161704751
:100CB0000000FA050CED00E000E400E080E100E057
:100CC00080FFFF1F10B504469848844208D10121D7
:100CD000084600F086FB0021012000F082FB76E050
:100CE0009348844208D10121022000F07AFB0021C0
:100CF000022000F076FB6AE08E48844208D1012190
:100D0000042000F06EFB0021042000F06AFB5EE08E
:100D10008948844208D10121082000F062FB0021AB
:100D2000082000F05EFB52E08448844208D1012193
:100D3000102000F056FB0021102000F052FB46E08E
:100D40007F48844208D10121202000F04AFB002185
:100D5000202000F046FB3AE07A48844208D1012185
:100D6000402000F03EFB0021402000F03AFB2EE046
:100D70007548844208D10121802000F032FB002117
:100D8000802000F02EFB22E07048844208D101212F
:100D9000801500F026FB0021A01500F022FB16E0D4
:100DA0006B48844208D10121401500F01AFB002154
:100DB000601500F016FB0AE06648844207D1012165
:100DC000001500F00EFB0021201500F00AFB10BDFD
:100DD000F0B50A4600210023002400BF3DE00125B4
:100DE00005FA01F3156805EA03049C4234D105684D
:100DF0004F000326BE40B543056015794E00B5404F
:100E00000668354305601579012D02D01579022D4C
:100E100016D185684F000326BE40B54385605579DD
:100E20004E00B540866835438560456801268E4092
:100E3000B5434560456896798E40B6B23543456006
:100E4000C5684F000326BE40B543C560D5794E0046
:100E5000B540C6683543C560491C1029BFD3F0BDF5
:100E60004FF6FF7101600021017141718171C17103
:100E7000704708B54FF480320092009A0A430092FE
:100E8000009AC261C161009AC261C2690092C269DE
:100E9000009208BD0246002013690B400BB10120EF
:100EA00000E0002070470146086980B270470246A2
:100EB000002053690B400BB1012000E00020704777
:100EC0000146486980B2704701837047418370478B
:100ED0000AB1018300E04183704741617047426974
:100EE0004A4042617047F0B5002300244D07ED0EE3
:100EF00002FA05F3CE1000F1200555F826504E07F2
:100F0000F70E0F26BE40B543CF1000F1200646F87D
:100F10002750CE1000F1200555F8265045EA03046D
:100F2000CE1000F1200545F82640F0BD000002403B
:100F30000004024000080240000C02400010024081
:100F40000014024000180240001C02400020024031
:100F50000024024000280240F948006840F00100E7
:100F6000F74908600020F64908310860F448006835
:100F7000F4490840F2490860F348091D0860F34845
:100F8000EF4984310860F0481038091D0860EC48CA
:100F9000006820F48020EA4908600020E8490C310C
:100FA0000860E7498C31086070470021E44A921CD0
:100FB000117011460870704710B5014600220023D9
:100FC00000204A11012A02D1DD4C236808E0022AE0
:100FD00003D1DB4C7034236802E0D94C74342368AD
:100FE00001F01F02012494401C400CB1012000E0DC
:100FF000002010BD38B5002000900024002500BF5F
:101000003120FFF7D9FF05460098401C009000985A
:10101000B0F5A04F01D0002DF2D03120FFF7CCFF6A
:1010200008B1012400E00024204638BD014600201C
:10103000C34A106820F0F80040EAC1001060704711
:10104000C349086070470021BD4A703211701170A9
:10105000012802D004280AD104E00121B84A7032E4
:10106000117005E00521B64A7032117000E000BF32
:1010700000BF7047B7490860704770B5049C41EAEB
:1010800082150126C6EB530645EA0645054345EAA7
:101090000465AB4E361D356070BDAD4908667047BE
:1010A000820142EA0172A64B84331A607047A84954
:1010B0008866704710B5830143EA016343EA02730F
:1010C0009F4C8834236010BDA14908677047A04930
:1010D000C864704702460020994B0833186820F016
:1010E000EC6042EA01031843954B083318607047DF
:1010F00002460020924B0833186820F0784042EAFC
:10110000010318438E4B08331860704701460020D6
:101110008B4A0832106820F00300084310607047C3
:1011200087480830006800F00C0070470146002036
:10113000834A0832106820F0F000084310607047BE
:10114000014600207E4A0832106820F4E05008432F
:101150001060704701460020794A0832106820F478
:10116000604040EAC10010607047F0B500210022E5
:101170000024022500260223714F08373F6807F03C
:101180000C0121B1042905D0082937D105E0724F9F
:10119000076036E0714F076033E0694F3F1D3F68DD
:1011A000C7F38056664F3F1D3F6807F03F036EB19F
:1011B0006A4FB7FBF3F7DFF888C10CF1040CDCF8D9
:1011C00000C0CCF3881C07FB0CF40CE0624FB7FBAB
:1011D000F3F7DFF86CC10CF1040CDCF800C0CCF3C1
:1011E000881C07FB0CF4564F3F1D3F68C7F30147AF
:1011F0007F1C7D00B4FBF5F7076002E0564F0760E7
:1012000000BF00BF4E4F08373F6807F0F0010909E3
:10121000534F7A5C0768D7404760494F08373F68AB
:1012200007F4E051890A4E4F7A5C4768D7408760DF
:10123000434F08373F6807F46041490B484F7A5CD9
:101240004768D740C760F0BD002100F44072B2F596
:10125000407F0AD13A4A0832116821F4F811414A14
:1012600002401143364A08321160354A7032126822
:10127000C0F30B031A43324B70331A607047354981
:10128000443908607047334940390860704736492F
:101290000860704701460020294A8C32106820F00F
:1012A0001F004A1E1043264A8C32106070470146C8
:1012B0000020234A8C32106820F4F8504A1E40EA7D
:1012C00002201F4A8C3210607047014600201C4AE1
:1012D0008C32106820F440100843106070470146BB
:1012E0000020174A8C32106820F440000843106038
:1012F000704701460020124A8C32106820F44030BA
:1013000008431060704719490860704739B10C4AAA
:101310003032126802430A4B30331A6006E0084A42
:10132000303212688243064B30331A607047F9B18D
:10133000034A343212680243014B34331A601CE012
:1013400000380240FFFFF6EA103000240030002091
:1013500000004742800E47420024F40000127A0049
:1013600033000020FFFCFF0F5C014742E0114742C1
:101370008F4A126882438E4B1A60704739B18C4A8B
:10138000121D126802438A4B1B1D1A6006E0884A30
:10139000121D12688243864B1B1D1A60704739B1BB
:1013A000834A0C3212680243814B0C331A6006E008
:1013B0007F4A0C32126882437D4B0C331A607047AF
:1013C00039B17B4A103212680243794B10331A60EC
:1013D00006E0774A103212688243754B10331A6068
:1013E000704739B1724A243A12680243704B243B69
:1013F0001A6006E06E4A243A126882436C4B243B22
:101400001A60704739B16A4A203A12680243684B41
:10141000203B1A6006E0664A203A12688243644B19
:10142000203B1A60704739B1614A1C3A1268024386
:101430005F4B1C3B1A6006E05D4A1C3A126882430F
:101440005B4B1C3B1A60704739B1594A143A126819
:101450000243574B143B1A6006E0554A143A12688F
:101460008243534B143B1A60704739B1504A103ACB
:10147000126802434E4B103B1A6006E04C4A103A89
:10148000126882434A4B103B1A60704739B1484A90
:101490001C3212680243464B1C331A6006E0444A71
:1014A0001C3212688243424B1C331A60704739B1B8
:1014B0003F4A2032126802433D4B20331A6006E057
:1014C0003B4A203212688243394B20331A607047FE
:1014D00039B1374A243212680243354B24331A603B
:1014E00006E0334A243212688243314B24331A60B7
:1014F000704739B12E4A2C32126802432C4B2C33E0
:101500001A6006E02A4A2C3212688243284B2C3398
:101510001A60704739B1264A303212680243244BB0
:1015200030331A6006E0224A303212688243204B80
:1015300030331A607047012808D11D493C310968D1
:1015400041F008011A4A3C32116007E018493C3169
:10155000096821F00801164A3C321160704739B120
:10156000134A273A12780243114B273B1A7006E0C0
:101570000F4A273A127882430D4B273B1A70704767
:101580000B484030006840F08070094940310860E5
:10159000704701460020064A283A12680A400AB1FC
:1015A000012000E00020704701492639087070478B
:1015B0003438024010B50446FA48844208D101216B
:1015C0001020FFF752FF00211020FFF74EFF57E0D9
:1015D000F548844209D101214804FFF735FF002175
:1015E0004FF40030FFF730FF4AE0F048844209D161
:1015F00001218804FFF728FF00214FF48020FFF726
:1016000023FF3DE0EA48844209D10121C804FFF7E5
:101610001BFF00214FF40020FFF716FF30E0E548E4
:10162000844209D101210805FFF70EFF00214FF484
:101630008010FFF709FF23E0DF48844208D1012131
:101640002020FFF712FF00212020FFF70EFF17E0F8
:10165000DA48844209D101218807FFF7F5FE00210D
:101660004FF08040FFF7F0FE0AE0D548844207D1F2
:1016700001214005FFF7E8FE00216005FFF7E4FEC9
:1016800010BD2DE9FF4705460E460024A14600BFC8
:10169000A046B08900B100BF2C8A24F44054F088E1
:1016A00004432C82AC8941F20C608443B0883189B8
:1016B0000843718908430443AC81AC8A24F4407424
:1016C000B0890443AC826846FFF74FFDB5488542B8
:1016D00002D0B948854202D1DDF80C9001E0DDF876
:1016E0000890A88900F4004040B109EBC90000EB64
:1016F000091031684900B0FBF1F707E009EBC900B8
:1017000000EB091031688900B0FBF1F76420B7FBEA
:10171000F0F004012009642101FB1078A88900F48D
:10172000004040B1322000EBC800B0FBF1F000F007
:101730000700044308E0322000EB08106421B0FBEE
:10174000F1F000F00F0004432C81BDE8FF874FF457
:101750001651016000218180C18001810C214181ED
:1017600000218181704710B502460020108A20F4C4
:1017700070600B884C8823438C882343CC88234398
:101780001843108210BD0021018041808180C180FA
:10179000704721B1828942F40052828104E082893B
:1017A0004DF6FF731A4082817047028B02F47F422C
:1017B0000283028B0A430283704721B1828942F47B
:1017C0000042828103E08289C2F30E028281704767
:1017D00021B1828A42F40062828204E0828A4FF25E
:1017E000FF731A4082827047C1F3080282807047FB
:1017F00001468888C0F308007047028A4FF6F073EC
:101800001A400282028A0A430282704721B1828909
:1018100042F00202828104E082894FF6FD731A4091
:101820008281704782894FF2FF731A4082818289D8
:101830000A4382817047028A4FF6DF731A400282A0
:10184000028A0A430282704721B1028A42F480422E
:10185000028204E0028A4BF6FF731A40028270474C
:10186000818941F001018181704721B1828A42F072
:101870000802828204E0828A4FF6F7731A4082825D
:101880007047028BD2B20283028B42EA01220283AA
:10189000704721B1828A42F02002828204E0828A6B
:1018A0004FF6DF731A408282704721B1828A42F07C
:1018B0001002828204E0828A4FF6EF731A4082821D
:1018C0007047828A4FF6FB731A408282828A0A43EB
:1018D0008282704721B1828A42F00202828204E051
:1018E000828A4FF6FD731A40828270471AB1838A4A
:1018F0000B43838202E0838A8B4383827047F0B577
:101900000346002400260025002040F66A17B9424D
:1019100000D100BF1846C1F3421401F01F06012791
:1019200007FA06F5012C01D10C3004E0022C01D19C
:10193000103000E014301AB107682F43076002E04E
:101940000768AF430760F0BD02460020B1F5007F95
:1019500000D100BF13880B400BB1012000E0002034
:10196000704701F40072B2F5007F00D100BFCA4396
:101970000280704770B50246002400230025002035
:1019800040F66A16B14200D100BFC1F3421501F022
:101990001F03012606FA03F3012D13D19689334064
:1019A00017E00000001001400044004000480040E3
:1019B000004C0040005000400014014000780040FE
:1019C000007C0040022D02D1168A334001E0968A45
:1019D00033400C12012606FA04F41688344013B181
:1019E0000CB1012000E0002070BD10B500220023E2
:1019F00040F66A14A14200D100BF0A1201249440AB
:101A0000A3B2DC43048010BD00F1080141604FF037
:101A1000FF31816000F10801C160016100210160B6
:101A2000704700210161704742684A6093688B608B
:101A3000936859609160086103685B1C036070479C
:101A400010B502460B685C1C0CB9106907E002F186
:101A5000080000E04068446824689C42FAD9446861
:101A60004C604C68A160886041600A611468641C25
:101A7000146010BD01460A69D1E901309860D1E9CE
:101A8000010358605068884201D188685060002086
:101A900008611068401E10601068704770B50546F8
:101AA0000E462C462CB940F21B12F9A1FEA002F002
:101AB00069F902F0B8F8D4E90F12206801FB0200BE
:101AC00060600020A0632068A060E06B401E226C74
:101AD000216800FB0210E060FF2084F8440084F8D5
:101AE00045009EB9206908B9012000E00020A8B98E
:101AF00004F1100001F06CFB80B14FF08050EE4912
:101B00000860BFF34F8FBFF36F8F07E004F1100041
:101B1000FFF77AFF04F12400FFF776FF02F0A6F842
:101B2000012070BD2DE9F04106460D461746984646
:101B3000069C0DB9246000E02760E663256401215E
:101B40002046FFF7ABFFBDE8F0812DE9F8430546DD
:101B50000E4690460DB1012000E0002028B94FF458
:101B6000C472CBA1D0A002F00DF90EB9002701E09C
:101B700005FB06F707F1480001F09DFE044644B15D
:101B800004F1480943464A46314628460094FFF787
:101B9000C9FF2046BDE8F88370B5044602F043F85B
:101BA00094F9455010E0606A08B9012000E0002077
:101BB00038B904F1240001F00BFB18B101F0DCFB93
:101BC00000E003E0681E45B2002DECDC00BFFF2002
:101BD00084F8450002F04AF802F025F894F94450E0
:101BE00010E0206908B9012000E0002048B904F1A4
:101BF000100001F0EDFA08B101F0BEFB681E45B21D
:101C000000E001E0002DECDC00BFFF2084F8440080
:101C100002F02CF870BD70B5054602F004F8A86B10
:101C2000E96B884201D1012400E0002402F01EF893
:101C3000204670BD2DE9F04104460F4615464FF091
:101C40000008A66B206C28B37DB93946226CA068C9
:101C500002F092F9216CA0680844A060D4E9011058
:101C6000884217D32068A06014E03946226CE068EF
:101C700002F082F9216CE068401AE0602168E068B7
:101C8000884203D2216C6068401AE060022D01D1C5
:101C900006B1761E701CA0634046BDE8F0812DE9B8
:101CA000FF4383B0064688461D464FF00009344680
:101CB0002CB940F2D92276A17BA002F063F8B8F1EA
:101CC000000F01D1206C08B9012000E0002028B9E4
:101CD00040F2DA226EA174A002F054F8022D02D173
:101CE000E06B012801D1012000E0002028B940F27A
:101CF000DB2267A16CA002F045F801F041FB08B9B6
:101D0000059808B9012000E0002028B940F2DE2241
:101D10005FA165A002F036F800BF01F084FFA06B60
:101D2000E16B884201D3022D28D12A464146204644
:101D3000FFF780FF0746606A08B9012000E0002035
:101D400068B904F1240001F043FA88B14FF08050E3
:101D500059490860BFF34F8FBFF36F8F08E03FB161
:101D60004FF0805054490860BFF34F8FBFF36F8F1F
:101D700001F07CFF012007B0BDE8F083059818B999
:101D800001F074FF0020F6E7B9F1000F04D101A8BB
:101D900001F0A2FA4FF0010901F068FF00F047FEE0
:101DA00001F041FF94F94400401C10B9002084F870
:101DB000440094F94500401C10B9002084F8450007
:101DC00001F054FF05A901A801F098FAF0B92046E6
:101DD000FFF721FFA0B104F11000059901F091F97E
:101DE0002046FFF7D9FE00F03AFD002895D14FF0CC
:101DF000805031490860BFF34F8FBFF36F8F8CE77E
:101E00002046FFF7C9FE00F02AFD86E72046FFF7CF
:101E1000C3FE00F024FD0020ADE72DE9F05F07468A
:101E20008A4690461E463C462CB940F29F3218A185
:101E30001DA001F0A7FFBAF1000F01D1206C08B975
:101E4000012000E0002028B94FF4687210A116A00C
:101E500001F098FF022E02D1E06B012801D1012090
:101E600000E0002028B940F2A13209A10EA001F043
:101E700089FF01F02BFF00BF5021EFF3118081F3A8
:101E80001188BFF34F8FBFF36F8F00BF054615E07A
:101E90002E2E5C4672656552544F535C7372635CC0
:101EA00071756575652E63004572726F723A2573A0
:101EB0002C25640D0A00000004ED00E0A06BE16B2E
:101EC000884201D3022E23D194F945B032465146BF
:101ED0002046FFF7AFFE0BF1010088B9606A08B930
:101EE000012000E0002080B904F1240001F070F925
:101EF00058B1B8F1000F08D00120C8F8000004E084
:101F00000BF1010040B284F845004FF0010901E0F7
:101F10004FF0000900BF85F3118800BF4846BDE8B7
:101F2000F09F2DE9F04706460F4634463CB940F293
:101F30003C42AFF2A401AFF2900001F023FF206C0D
:101F400008B9012000E0002038B94FF48862AFF2F0
:101F5000C001AFF2AC0001F015FF206808B960685D
:101F600008B9012000E0002038B940F24542AFF244
:101F7000E001AFF2CC0001F005FF01F0A7FE00BFC9
:101F80005021EFF3118081F31188BFF34F8FBFF31E
:101F90006F8F00BF0546D4F83890E06B48451ED9D6
:101FA00094F945A009F10100A0630AF1010070B99C
:101FB000606A08B9012000E0002068B904F124003B
:101FC00001F006F940B13FB10120386004E00AF1A8
:101FD000010040B284F845004FF0010801E04FF0E5
:101FE000000800BF85F3118800BF4046BDE8F087B8
:101FF00070B5054601F017FEA86B08B9012400E092
:10200000002401F033FE204670BD70B504460D4635
:10201000206C70B1216CE0680844E0606168E068A1
:10202000884201D32068E0602846226CE16801F014
:10203000A3FF70BD2DE9FF4782B005460E461F463F
:102040004FF0000A2C463CB940F2DC42AFF2C0111E
:10205000AFF2AC1001F096FE0EB9206C08B9012069
:1020600000E0002038B940F2DD42AFF2DC11AFF2FF
:10207000C81001F087FE01F083F908B9049808B987
:10208000012000E0002038B94FF49C62AFF200213B
:10209000AFF2EC1001F076FE00BF01F0C4FDD4F801
:1020A0003890B9F1000F38D0D4F80C803146204672
:1020B000FFF7ABFFB7B9A9F10100A063206908B928
:1020C000012000E0002010BB04F1100001F080F8B6
:1020D000E8B14FF08050E7490860BFF34F8FBFF37E
:1020E0006F8F14E0C4F80C80606A08B9012000E02A
:1020F000002060B904F1240001F06AF838B14FF013
:102100008050DC490860BFF34F8FBFF36F8F01F041
:10211000ADFD012006B0BDE8F087049818B901F0C4
:10212000A5FD0020F6E7BAF1000F04D1684601F0E2
:10213000D3F84FF0010A01F099FD00F078FC01F0AE
:1021400072FD94F94400401C10B9002084F844004A
:1021500094F94500401C10B9002084F8450001F0B6
:1021600085FD04A9684601F0C9F8F0B92046FFF7DB
:102170003FFFA0B104F12400049900F0C2FF204603
:10218000FFF70AFD00F06BFB002886D14FF080506E
:10219000B8490860BFF34F8FBFF36F8F7DE72046CC
:1021A000FFF7FAFC00F05BFB77E72046FFF7F4FC53
:1021B00000F055FB2046FFF71BFF0028EED0002063
:1021C000A8E72DE9F05F06468946174634463CB934
:1021D0004FF4B462AFF24831AFF2343001F0D2FDC7
:1021E000B9F1000F01D1206C08B9012000E00020F6
:1021F00038B940F2A152AFF26831AFF2543001F079
:10220000C1FD01F063FD00BF5021EFF3118081F3A8
:102210001188BFF34F8FBFF36F8F00BF0546D4F80F
:1022200038A0BAF1000F22D094F944B049462046B4
:10223000FFF7EBFEAAF10100A0630BF1010070B9FA
:10224000206908B9012000E0002068B904F11000FD
:1022500000F0BEFF40B13FB10120386004E00BF157
:10226000010040B284F844004FF0010801E04FF053
:10227000000800BF85F3118800BF4046BDE8F09F0D
:102280002DE9F0470646884634463CB940F2FC52F8
:10229000AFF20441AFF2F03001F074FDB8F1000F7D
:1022A00001D1206C08B9012000E0002038B940F2CB
:1022B000FD52AFF22441AFF2104001F063FD206CFB
:1022C00008B1012000E0002038B940F2FE52AFF220
:1022D0004041AFF22C4001F055FD01F0F7FC00BF8A
:1022E0005021EFF3118081F31188BFF34F8FBFF3BB
:1022F0006F8F00BF0546A06B48B1D4F80C904146E3
:102300002046FFF782FEC4F80C90012700E000276A
:1023100000BF85F3118800BF3846BDE8F08770B56F
:1023200004463CB940F22F62AFF29C41AFF28840C4
:1023300001F028FD01F077FCA56B01F097FC284621
:1023400070BD70B5044625463DB940F24162AFF21A
:10235000C041AFF2AC4001F015FD01F064FCD5E9DD
:102360000E10461A01F082FC304670BD70B504466E
:102370003CB940F25162AFF2E841AFF2D44001F013
:1023800001FDA56B284670BD014600200EE03A4ACB
:1023900002EBC00252688A4207D10022364B43F852
:1023A000302003EBC0035A6002E0401C0A28EED341
:1023B00000BF704770B5044625463DB940F25D62E6
:1023C000AFF23451AFF2205001F0DCFC2846FFF7A9
:1023D000DBFF284601F0F2FA70BD70B505463DB945
:1023E00040F29372AFF25851AFF2445001F0CAFC80
:1023F000A86B08B9012400E00024204670BD70B528
:1024000004463CB940F2BA72AFF27C51AFF2685068
:1024100001F0B8FCA06BE16B884201D1012500E01E
:102420000025284670BD024600200BE0124B53F8F1
:10243000303033B9104B43F8301003EBC0035A600F
:1024400002E0401C0A28F1D300BF7047024600207A
:1024500000210AE0084B03EBC1035B68934203D100
:10246000054B53F8310002E0491C0A29F2D300BFA2
:102470007047000004ED00E06C01002010B500245E
:1024800007E004EB8401FE4A02EB8100FFF7BCFA8F
:10249000641C202CF5D3FB48FFF7B6FAFA48FFF787
:1024A000B3FAFA48FFF7B0FAF948FFF7ADFAF9487E
:1024B000FFF7AAFAF348F8490860F348F7490860BB
:1024C00010BD10B5044601F0AEFBF5480068401C95
:1024D000F3490860F348006840B9F24804600846D0
:1024E000006801280DD1FFF7C9FF0AE0EE48006837
:1024F00038B9EC480068C06AE16A884201D8E94806
:102500000460EA480068401CE849086094F82C1010
:1025100001208840E64909680843E5490860E16A06
:1025200001EB8101D64A02EB8100211DFFF77CFA05
:1025300001F09CFBDC48006868B1DA480068C06ABA
:10254000E16A884207D24FF08050DA490860BFF351
:102550004F8FBFF36F8F10BD2DE9FF5F81460E4691
:102560009246DDE90E7B109CAAF10100216B01EB84
:10257000800828F0070808F0070008B9012000E0EB
:10258000002028B940F22B32CBA1D1A001F0FAFBF8
:10259000002507E0715D04F134004155705D00B91C
:1025A00002E06D1C102DF5D300BF00214320015522
:1025B000202F00D31F27E762201DFFF732FA04F116
:1025C0001800FFF72EFA2461C7F12000A0616462B1
:1025D0000020606484F8480049464046039A01F0B0
:1025E00070FA2060BBF1000F01D0CBF80040BDE8CD
:1025F000FF9F2DE9FF4F85B0804689461746DDE9EC
:1026000012ABB80001F057F9064656B14C2001F064
:1026100052F904460CB1266304E0304601F0CEF9CD
:1026200000E000247CB10020CDE900ABCDE9024000
:102630003A4649464046089BFFF78EFF2046FFF783
:1026400040FF012501E04FF0FF35284609B0BDE805
:10265000F08F91490968096809B9012100E000215A
:1026600021B14FF0FF319E4A116006E08A490968A6
:10267000C968C8689A4A41681160704710B5044635
:10268000206B01F09BF9204601F098F910BD70B560
:10269000054601F0C8FA15B98248006800E02846EE
:1026A0000446201DFFF7E6F978B9E06A00EB8000E8
:1026B000734951F8200040B994F82C10012088404B
:1026C0007B49096881437A480160A06A18B104F126
:1026D0001800FFF7CFF975480068401C734908607F
:1026E00070480068844209D1211D6948FFF79CF9B0
:1026F0007C480068401C7B49086009E06848006825
:10270000401E674908602046FFF7B8FFFFF7A1FFAA
:1027100001F0ACFA64480068C0B1624800688442C5
:1027200014D17148006808B9012000E0002028B9E0
:1027300040F2654260A166A001F024FB4FF080509A
:102740005C490860BFF34F8FBFF36F8F70BD2DE9F9
:10275000F0414FF0000864480068002872D16348D7
:102760000068451C61480560EDB94B480068006889
:1027700008B9012000E0002028B940F6D9124EA186
:1027800053A001F0FFFA44480768444800684249F2
:1027900008604248076056480068401C5449086079
:1027A000FFF757FF00BF4E48006885423CD300BF8B
:1027B00039480068006808B9012000E0002020B115
:1027C0004FF0FF30464908602DE033480068C0688C
:1027D000C4686668B54202D24148066023E0201D05
:1027E000FFF748F9A06A18B104F11800FFF742F9A1
:1027F00094F82C10012088402D49096808432C4981
:102800000860E16A01EB81011D4A02EB8100211D94
:10281000FFF70AF92349E06A0968C96A8842C7D301
:102820004FF00108C4E700BF1E480068C06A00EB13
:102830008000134951F82000012801D94FF0010808
:1028400005E0FFE72B480068401C2A4908602A4839
:10285000006808B14FF001084046BDE8F08170B54E
:10286000002400262048006828B94FF4FD6212A118
:1028700017A001F087FA01F0D6F91B4800683DE087
:10288000BC0100203C04002050040020640400200F
:10289000780400208C040020480000204C00002018
:1028A0005400002044000020600000207000002040
:1028B0005C00002004ED00E02E2E5C46726565523F
:1028C000544F535C7372635C7461736B732E63005B
:1028D0004572726F723A25732C25640D0A00000050
:1028E00074000020500000207C00002058000020D0
:1028F0006C0000206400002068000020401EFE499B
:1029000008600846006800284FD1FC48006800288D
:102910004BD024E0FA48C068C46804F11800FFF7FF
:10292000A9F8201DFFF7A6F894F82C100120884084
:10293000F44909680843F3490860E16A01EB810141
:10294000F14A02EB8100211DFFF76EF8EF49E06AC2
:102950000968C96A884202D30120ED490860E84845
:10296000006808B9012000E000200028D2D00CB196
:10297000FFF76FFEE748056865B100BFFFF7E7FEA8
:1029800010B10120E24908606D1E002DF6D1002033
:10299000E0490860DE48006838B101263007DE49AA
:1029A0000860BFF34F8FBFF36F8F01F05FF93046C0
:1029B00070BD2DE9F04105460E46D8480768D3485A
:1029C0000068001DFFF756F850B9D048006890F82D
:1029D0002C1001208840CB4909688143C948016017
:1029E000681C38B936B1C9480168091DCC48FFF7E1
:1029F0001BF81AE07C19C54800684460BC4207D245
:102A0000C2480168091DC7480068FFF719F80CE0C3
:102A1000BE480168091DC4480068FFF711F8C348A3
:102A20000068844201D2C1480460BDE8F081B24828
:102A30000068401CB049086070472DE9F047044623
:102A40000F464FF000093CB940F27942AFF29811BD
:102A5000AFF2841001F096F90FB1012000E00020E0
:102A600038B940F27A42AFF2B011AFF29C1001F0E7
:102A700089F9A148006808B9012000E0002038B9B0
:102A800040F27B42AFF2D011AFF2BC1001F07AF904
:102A9000FFF7CDFFA14806682068C5192068B0423D
:102AA00007D92068A8420BD9B54209D94FF00109CE
:102AB00006E02068A84201D8B54201D94FF00109CB
:102AC0002560B9F1000F03D0A81B0021FFF771FFAB
:102AD000FFF7C5FE8046B8F1000F07D14FF08050D8
:102AE0008D490860BFF34F8FBFF36F8FBDE8F0874C
:102AF00070B504460025BCB17F48006808B90120C4
:102B000000E0002038B940F2CF42AFF25421AFF2DA
:102B1000402001F037F9FFF78AFF00212046FFF738
:102B200048FFFFF79CFE05463DB94FF080507A49BB
:102B30000860BFF34F8FBFF36F8F70BD2DE9F04179
:102B400007463E463EB940F2FB42AFF29421AFF257
:102B5000802001F017F96D480068864201D10024F9
:102B60001EE001F060F8756901F080F86E480068B9
:102B7000854203D06B480068854201D102240FE0F2
:102B80006748854205D1B06A08B9032408E00224E9
:102B900006E06748854200D00DB9042400E0012416
:102BA0002046BDE8F08170B5044601F03CF814B948
:102BB0005648006800E020460646F56A01F056F8DF
:102BC000284670BD2DE9F041054601F07FF800BFB1
:102BD0005021EFF3118081F31188BFF34F8FBFF3C2
:102BE0006F8F00BF044615B94848006800E02846CA
:102BF0000746FE6A00BF84F3118800BF3046BDE877
:102C0000F0812DE9F04780460D464FF00009202D58
:102C100001D2012000E0002038B94FF4B062AFF2D9
:102C20006831AFF2543001F0ADF8202D00D31F25EC
:102C300000F0F9FFB8F1000F02D13448006800E05D
:102C400040460446E66AAE4251D0B5420BD92F4801
:102C5000006884420DD02D480068C06AA84208D898
:102C60004FF0010905E029480068844201D14FF086
:102C70000109E76AE562A06900F0004010B9C5F1FA
:102C80002000A06107EB87011F4A02EB8101606908
:102C9000884201D1012000E00020E0B1201DFEF7B4
:102CA000E9FE30B90120B84016490968814315484A
:102CB000016094F82C1001208840124909680843EB
:102CC00010490860E16A01EB81010F4A02EB8100C3
:102CD000211DFEF7A9FEB9F1000F07D04FF080507B
:102CE0000D490860BFF34F8FBFF36F8F00BF00F037
:102CF000BDFFBDE8F08700007C00002054000020EC
:102D0000640400205C000020BC010020440000207E
:102D1000680000206400002004ED00E0580000205E
:102D20008C0400204C00002048000020740000208B
:102D30007804002010B5FE48006818B10120FD4954
:102D400008602FE00020FB490860FB480068B0FAEB
:102D500080F0C0F11F0404EB8400F84951F8200012
:102D600008B1012000E0002038B940F6F622AFF2A9
:102D7000B841AFF2A44001F005F804EB8401EF4A3A
:102D800002EB810041684968416000F10801426836
:102D90008A4202D14168496841604168C968E84A8D
:102DA000116000BF10BD70B5054600F03CFF15B9BD
:102DB000E348006800E028460446201DFEF75AFE5E
:102DC00078B9E06A00EB8000DC4951F8200040B996
:102DD00094F82C1001208840D74909688143D648CF
:102DE0000160A06A18B104F11800FEF743FE211D2E
:102DF000D448FEF719FE00F039FFD348006828B127
:102E000000F011FFFFF725FC00F030FFCC48006810
:102E1000844226D1CC480068B8B1C548006808B9DA
:102E2000012000E0002038B940F25762AFF278513B
:102E3000AFF2645000F0A6FF4FF08050C349086025
:102E4000BFF34F8FBFF36F8F0BE0BE480068C049E0
:102E50000968884203D10020B949086001E0FFF702
:102E600069FF70BD70B5054600262C463DB940F29D
:102E70008162AFF2BC51AFF2A85000F083FFB149BC
:102E80006069884201D1012000E0002070B1B149A1
:102E9000A06A884201D1012000E0002030B9A06A78
:102EA00008B9012000E0002000B10126304670BDC5
:102EB00070B505462C463DB940F2AB62AFF20861F1
:102EC000AFF2F45000F05EFF74B39D480068844296
:102ED0002AD000F0A8FE2046FFF7C4FF10B3201D43
:102EE000FEF7C8FD94F82C1001208840924909682B
:102EF000084391490860E16A01EB81018F4A02EBC6
:102F00008100211DFEF790FD8D49E06A0968C96ABC
:102F1000884207D34FF080508C490860BFF34F8F31
:102F2000BFF36F8F00F0A2FE70BD2DE9F0410646A1
:102F3000002734463EB940F2E262AFF28461AFF25C
:102F4000706000F01FFF00F0C1FE00BF5021EFF3E2
:102F5000118081F31188BFF34F8FBFF36F8F00BFD4
:102F600005462046FFF77EFF20B371480068E0B9B0
:102F70007349E06A0968C96A884200D30127201DA5
:102F8000FEF778FD94F82C10012088406A49096802
:102F9000084369490860E16A01EB8101674A02EB75
:102FA0008100211DFEF740FD04E004F1180169488D
:102FB000FEF73AFD00BF85F3118800BF3846BDE833
:102FC000F08170B523E0FFF732FD6348006808B96F
:102FD000012000E000200546FFF741FCBDB900F0EC
:102FE00022FE5D48C068C468201DFEF743FD5848B6
:102FF0000068401E5649086058480068401E5749FE
:10300000086000F033FE2046FFF738FB00BF53484E
:1030100000680028D7D170BD00BFFFF7D2FF474836
:1030200000680128F9D94FF0805048490860BFF383
:103030004F8FBFF36F8FF0E71CB5494800210B4657
:103040008022CDE9001047A14848FFF7D2FA044694
:10305000012C15D100BF502080F31188BFF34F8F92
:10306000BFF36F8F00BF4FF0FF3041490860012070
:103070003549086000203F49086000F042FD0DE03E
:10308000601C08B1012000E0002038B940F28472D1
:10309000AFF2DC71AFF2C87000F074FE1CBD10B569
:1030A00000BF502080F31188BFF34F8FBFF36F8FA5
:1030B00000BF00202449086000F0A4FD10BD2D4988
:1030C0000868704770B500F001FE002529480468C3
:1030D000204670BD1E480068704770B5044614B99C
:1030E0001748006800E0204605463DB940F68C02CE
:1030F000AFF63C01AFF6280000F044FE05F13400C5
:1031000070BD70B504460D463CB940F60632AFF6C8
:103110005801AFF6440000F035FE09480168183147
:103120002046FEF78DFC01212846FFF742FC70BDCA
:103130007C000020680000205C000020BC01002012
:10314000440000208C0400206000002004ED00E01A
:103150005400002064040020780400205000002067
:103160007800002049444C45000000001930000858
:10317000740000205800002070B504460D46164625
:103180003CB940F61732AFF6D001AFF6BC0000F004
:10319000F9FDFE48006808B1012000E0002038B9C0
:1031A00040F61B32AFF6F001AFF6DC0000F0EAFDAE
:1031B00045F00040F64909688861F5480168183112
:1031C0002046FEF731FC01213046FFF7F2FB70BDCF
:1031D00070B50646F068C4683CB940F66132AFF697
:1031E0002811AFF6141000F0CDFD04F11800FEF721
:1031F00041FCE6480068A8B9201DFEF73BFC94F8A6
:103200002C1001208840E34909680843E14908601F
:10321000E16A01EB8101E04A02EB8100211DFEF72A
:1032200003FC04E004F11801DC48FEF7FDFBD8497B
:10323000E06A0968C96A884204D901250120D84991
:10324000086000E00025284670BD2DE9F0410546E4
:103250000F46CE48006808B1012000E0002038B9D0
:1032600040F69932AFF6B011AFF69C1000F08AFD2F
:1032700047F000402860EC683CB940F6A132AFF658
:10328000C811AFF6B41000F07DFD2846FEF7F2FB42
:10329000201DFEF7EFFB94F82C1001208840BD495B
:1032A00009680843BB490860E16A01EB8101BA4A39
:1032B00002EB8100211DFEF7B7FBB549E06A096802
:1032C000C96A884204D901260120B549086000E096
:1032D00000263046BDE8F08110B504463CB940F602
:1032E000C132AFF62C21AFF6182000F04BFDAD48EF
:1032F00000682060AC480068606010BD2DE9F041B6
:1033000004460D463CB940F6CB32AFF65421AFF639
:10331000402000F037FD3DB940F6CC32AFF66821D1
:10332000AFF6542000F02EFD00F07DFC9E480768AB
:103330002868401C08B9002619E09A4920680968E5
:10334000884204D06068B84201D801260FE0606866
:10335000381A2968884209D228686168791A401A9F
:1033600028602046FFF7B8FF002600E0012600F0A5
:103370007DFC3046BDE8F081012089490860704736
:103380008A49096809B9012005E08049096809B935
:10339000022000E0002070477D49096888697C4967
:1033A0000968C96AC1F12001794A126891617047C0
:1033B00070B506460D4600F036FC75480068406C56
:1033C00088B901207249096881F848005DB101217E
:1033D0002846FFF7EEFA4FF0805075490860BFF3BA
:1033E0004F8FBFF36F8F00F041FC00F01CFC68486A
:1033F0000068446C4CB126B10020654909684864F6
:1034000003E0601E62490968486400206049096859
:1034100081F8480000F02AFC204670BD2DE9F041FB
:103420000746884614461D4600F0FDFB58480068D4
:1034300090F84800022818D05549096801F1440065
:10344000496CB943016001205149096881F848007D
:103450005DB101212846FFF7ACFA4FF08050544986
:103460000860BFF34F8FBFF36F8F00F0FFFB00F0DA
:10347000DAFB1CB146480068406C20604448006894
:1034800090F84800012801D1002608E04049096869
:1034900001F14400496C21EA080101600126002085
:1034A0003B49096881F8480000F0E0FB3046BDE880
:1034B000F0812DE9F04706460D46174698464FF035
:1034C000010A3EB941F2FD02AFF61441AFF60040E9
:1034D00000F058FC344600F0A6FBB8F1000F02D013
:1034E000606CC8F8000094F84890022084F8480006
:1034F000052F17D2DFE807F01503070B0D00606CEE
:10350000284360640EE0606C401C60640AE06564FF
:1035100008E0B9F1020F01D0656401E04FF0000A44
:1035200000E000BF00BFB9F1010F45D1201DFEF73B
:10353000A1FA94F82C100120884016490968084324
:1035400014490860E16A01EB8101134A02EB810032
:10355000211DFEF769FAA06A08B9012000E00020E9
:1035600038B941F23512AFF6B041AFF69C4000F0E9
:1035700009FC0749E06A0968C96A88421CD94FF00A
:1035800080500B490860BFF34F8F13E07C00002090
:10359000440000205C000020BC01002064040020E6
:1035A000680000206C00002058000020600000200F
:1035B00004ED00E0BFF36F8F00F058FB5046BDE80C
:1035C000F0872DE9F84F07460E4690469946DDF8FC
:1035D00028B0012000903FB941F26812AFF628519F
:1035E000AFF6145000F0CEFB00F070FB3C4600BF7D
:1035F0005021EFF3118081F31188BFF34F8FBFF398
:103600006F8F00BF0546B9F1000F02D0606CC9F89A
:10361000000094F848A0022084F84800B8F1050F93
:1036200017D2DFE808F01503070B0D00606C30437C
:1036300060640EE0606C401C60640AE0666408E050
:10364000BAF1020F01D0666401E00020009000E0B2
:1036500000BF00BFBAF1010F3BD1A06A08B9012039
:1036600000E0002038B941F2AF12AFF6B451AFF626
:10367000A05000F087FB59480068A8B9201DFEF74C
:10368000F9F994F82C10012088405549096808433D
:1036900053490860E16A01EB8101524A02EB810063
:1036A000211DFEF7C1F904E004F118014E48FEF7B0
:1036B000BBF94E49E06A0968C96A884209D9BBF179
:1036C000000F03D00120CBF8000002E001204849A0
:1036D000086000BF85F3118800BF0098BDE8F88F2F
:1036E0002DE9F04105460F463DB941F2E312AFF630
:1036F0003861AFF6246000F045FB00F0E7FA2C4695
:1037000000BF5021EFF3118081F31188BFF34F8F79
:10371000BFF36F8F00BF064694F84880022084F8FC
:103720004800606C401C6064B8F1010F38D1A06A99
:1037300008B9012000E0002038B941F20922AFF6B3
:103740008861AFF6746000F01DFB24480068A8B9DA
:10375000201DFEF78FF994F82C1001208840204995
:10376000096808431E490860E16A01EB81011D4AAE
:1037700002EB8100211DFEF757F904E004F1180166
:103780001948FEF751F91949E06A0968C96A88427F
:1037900006D917B10120386002E001201449086001
:1037A00000BF86F3118800BFBDE8F08170B5054603
:1037B00015B90E48006800E02846064600F033FAC6
:1037C00096F84800022804D1002086F84800012419
:1037D00000E0002400F04AFA204670BD7C00002082
:1037E0005C000020BC010020640400204400002094
:1037F0006800002010B50146924800E000680368A8
:103800008B42FBD30246436813448B4204D1436886
:103810004C682344436001460A464B6813440468DD
:10382000A34211D1884C03682468A34208D04B6896
:103830000468646823444B6003681B680B6005E000
:10384000814B1B680B6001E003680B60884200D06D
:10385000016010BD30B54FF410437C4800F0070400
:103860002CB1C01D20F00700784C041B1B1B024626
:10387000744C22600024734D6C60D018083820F01E
:103880000700714C206000246F4D2D686C606E4DF8
:103890002D682C601146441A4C606B4C24680C60F7
:1038A0006B4D4C682C606B4D4C682C604FF00044A5
:1038B000694D2C6030BD2DE9F04104464FF0000801
:1038C000FFF7B5F86048006808B9FFF7C3FF624822
:1038D0000068204000285FD1A4B1083404F007003C
:1038E00080B104F00700C0F10800044404F00700B0
:1038F00008B9012000E0002020B9BF2257A160A034
:1039000000F040FA002C47D052480068844243D867
:103910004C4E3046056801E02E462D686868A0428E
:1039200002D228680028F7D147480068854233D082
:10393000306800F10808286830606868001B1028AB
:1039400013D92F1907F0070008B9012000E0002063
:1039500020B9EC2241A14AA000F014FA6868001BCB
:1039600078606C603846FFF745FF3A496868096837
:10397000081A3849086008460068354909688842CD
:1039800003D23448006832490860334968680968DE
:103990000843686000202860FEF761FF08F0070018
:1039A00008B9012000E0002028B94FF496722BA13D
:1039B00033A000F0E7F94046BDE8F08170B5064657
:1039C0003546002E35D0083D2C46234960680968ED
:1039D000084008B1012000E0002028B94FF4A0728F
:1039E0001EA127A000F0CEF9206808B9012000E050
:1039F000002028B940F2411218A121A000F0C2F91C
:103A0000154960680968084098B1206888B912496A
:103A10006068096888436060FFF709F80D496068CD
:103A2000096808440B4908602046FFF7E3FEFEF7EB
:103A300016FF70BD0748006870470548006870476A
:103A4000704700008000002088000020A0040020B3
:103A5000900000208C000020940000202E2E5C4658
:103A600072656552544F535C706F72745C4D656D36
:103A70004D616E675C686561705F342E63000000A5
:103A80004572726F723A25732C25640D0A0000008E
:103A9000A4480068401C08B9012000E0002028B9B3
:103AA00040F20F12A0A1AAA000F06CF900BF5020B4
:103AB00080F31188BFF34F8FBFF36F8F00BF00BF3C
:103AC000FEE7001F4FF080730360001F21F0010329
:103AD0000360001FA24B036014380260001F6FF0E8
:103AE00002030360203870479E4800684FF47A71E3
:103AF000B0FBF1F0401E4FF0E02148610720086163
:103B000070471CB5984800689849884201D0012048
:103B100000E0002028B940F2591283A18CA000F0E7
:103B200031F9914800689149491E884201D001202D
:103B300000E0002028B94FF4AD727BA184A000F012
:103B400021F98B4C204600780190FF202146087017
:103B50000846007800909DF8000000F0F0009DF805
:103B60000010884201D1012000E0002028B940F275
:103B700073126DA176A000F005F99DF8000000F029
:103B800050007C49087007207B49086009E07A48AA
:103B90000068401E784908609DF800004006000E4D
:103BA00000909DF8000000F080008028EFD072485F
:103BB00000680002704908600846008800F4E06070
:103BC00008606B490198087067482030006840F42D
:103BD00070006549203108600846006840F0704078
:103BE0000860FFF781FF00204E490860FCF746FBA4
:103BF0006248006840F0404060490860FCF72EFBD6
:103C000000201CBD10B547480068B0F57A7F01D18F
:103C1000012000E0002028B940F2A91242A14CA0E6
:103C200000F0B0F810BD10B500BF502080F311882F
:103C3000BFF34F8FBFF36F8F00BF3A480068401C3F
:103C4000384908600846006801280ED14648001D22
:103C50000068C0B208B9012000E0002028B940F295
:103C6000B91231A13AA000F08DF810BD10B52D4861
:103C7000006828B94FF4E0722BA135A000F082F85B
:103C800028480068401E274908600846006820B997
:103C9000002080F3118800BF00BF10BD10B500BF29
:103CA000502080F31188BFF34F8FBFF36F8F00BF99
:103CB000FEF74DFD20B14FF080502B49091D0860E3
:103CC00000BF002080F3118800BF10BD70B5FCF765
:103CD0000DFB0546102D11D305F1E02090F8F043BF
:103CE00024480078844201DB012000E0002028B94C
:103CF0004FF440720CA116A000F044F81A480C30A2
:103D0000006800F4E0601C490968884201D801207D
:103D100000E0002028B94FF4447203A10CA000F089
:103D200031F870BD980000202E2E5C4672656552F9
:103D3000544F535C706F72745C525644535C4152E2
:103D40004D5F434D34465C706F72742E630000000B
:103D50004572726F723A25732C25640D0A000000BB
:103D6000913A00081800002000ED00E071C20F41F8
:103D700000E400E09C000020A000002034EF00E000
:103D8000704700000FB4044910B503AA029800F070
:103D9000ABF910BC5DF814FB2C00002070B50C468C
:103DA0000546012A05D02878800600D5EA69002357
:103DB00002E0012305E05B1C934202D2E05C002894
:103DC000F9D1A869E618C01AA861286A18442862BF
:103DD0002846AFF3008004E0D5E9012114F8010B77
:103DE0009047B442F8D32846AFF3008070BD00007E
:103DF0002DE9F0410646002410687529314616A5C4
:103E000010D0AFF30080002802DA404213A507E08B
:103E100031688A0701D512A502E0490704D511A52A
:103E2000012401E0AFF3008000210A2206F12407FB
:103E300009E0B0FBF2FCB0FBF2F302FB1C003030F7
:103E400078541846491C0028F3D123462A463046A8
:103E5000BDE8F04100F0D9B8000000002D000000DE
:103E60002B0000002000000070B504460D462146DE
:103E70001068AFF300802188090502D50F4A7A4403
:103E800002E00E4A7A440E32002104F1240305E0D8
:103E900000F00F060009965D5E54491C0028F7D11A
:103EA00020780023000704D5702D02D009B1022329
:103EB00011322046BDE8704000F0A7B89003000022
:103EC0002DE9F0410F460546002028622846E968A2
:103ED000884770B3252805D0D5E901219047286A85
:103EE000401CF2E7E9682846002688476C2804460B
:103EF0000AD0682C08D04C2C35D06A2C31D0742CC8
:103F000031D07A2C2FD016E0E9680646284688473B
:103F1000B042044608D16C2E23D04FF48066284668
:103F2000E9688847044606E06C2E03D04FF480769B
:103F300001E01EE04026E4B1A4F14100192802D8B6
:103F4000203446F400663A46214628462E60FCF7A7
:103F500055F960B1012808D0FF1D27F00707083781
:103F6000B4E78026DBE70026D9E73F1DAEE7204611
:103F7000B2E7286ABDE8F081032A40F2308010F0F1
:103F8000030C00F0158011F8013BBCF1020F6244F4
:103F900098BF11F801CB00F8013B38BF11F8013B85
:103FA000A2F1040298BF00F801CB38BF00F8013B32
:103FB00011F0030300F0AA80083AC0F0088051F81D
:103FC000043B083A51F804CBA0E80810F5E7121DAD
:103FD0005CBF51F8043B40F8043BAFF30080D207CC
:103FE00024BF11F8013B11F801CB48BF11F8012B98
:103FF00024BF00F8013B00F801CB48BF00F8012BBB
:10400000704770477047704770472DE9F0470D467D
:1040100099469246044600F124080168880604D5B2
:10402000E06921F01001216000E00120A84201DDDB
:10403000471B00E00027A1697A1902EB0900081A62
:10404000A0612078C00602D42046AFF3008000268D
:1040500008E0D4E901211AF806009047206A401CC4
:10406000761C20624E45F4DB2078C0060AD5204637
:10407000AFF3008006E0D4E9012130209047206AA8
:10408000401C2062381EA7F10107F4DC07E0D4E9E8
:10409000012118F805009047206A401C2062281E64
:1040A000A5F10105F3DC2046AFF30080207800067F
:1040B00002D50220BDE8F0870120FBE710B5436977
:1040C00013B1AFF3008001E0FFF768FE012010BDDF
:1040D000127800F124010A7000224A700122EDE7F3
:1040E00011684FF0FF32E9E7074B70B50D467B448E
:1040F00000F043F80446284600F052F810B14FF0A3
:10410000FF3070BD204670BDC3C7FFFF10B5203A19
:10411000C0F00B80B1E81850203AA0E81850B1E880
:104120001850A0E81850BFF4F5AF5FEA027C24BF36
:10413000B1E81850A0E8185044BF18C918C0BDE82D
:1041400010405FEA827C24BF51F8043B40F8043BF6
:1041500008BF7047D20728BF31F8023B48BF11F8AB
:10416000012B28BF20F8023B48BF00F8012B704705
:1041700001694A1C02610878704700B58FB0CDE92B
:1041800001310021059105497944CDE9031011461B
:104190006846FFF795FE0FB000BD0000E5FFFFFF8A
:1041A000007B00F080007047754600F029F8AE46AD
:1041B00005006946534620F00700854618B020B533
:1041C000FCF7FEFCBDE820404FF000064FF0000772
:1041D0004FF000084FF0000B21F00701AC46ACE8AF
:1041E000C009ACE8C009ACE8C009ACE8C0098D461C
:1041F00070470446AFF300802046FCF719F8000032
:1042000000487047A09400204FF04070E1EE100A83
:1042100070473031323334353637383941424344D0
:10422000454640305800303132333435363738392E
:104230006162636465664030780000005C4200089B
:1042400000000020A4000000C40100080043000892
:10425000A40000205C9A0000E001000800000000BB
:10426000000000000000000000000000010000004D
:1042700000000000007A030A0000000000000000B7
:104280000102030406070809000000000000010005
:1042900000000001020304010203040607080900EC
:1042A000000000000000000000000000000000000E
:1042B00000000000000000000000000000000000FE
:1042C00000000000000000000000000000000000EE
:1042D00000000000000000000000000000000000DE
:1042E00000000000000000000000000000000000CE
:1042F00000000000AAAAAAAA000000000000000016
:040000050800018965
:00000001FF
