:020000040800F2
:1000000058A6002085370008790800087B080008FA
:100010007F08000883080008870800080000000027
:100020000000000000000000000000009502000831
:100030008B08000800000000E90200088D08000895
:100040009F3700089F3700089F3700089F37000838
:100050009F3700089F3700089F3700089F37000828
:100060009F3700089F3700089F3700089F37000818
:100070009F3700089F3700089F3700089F37000808
:100080009F3700089F3700089F3700089F370008F8
:100090009F3700089F3700089F3700089F370008E8
:1000A0009F3700089F3700089F3700089F370008D8
:1000B0009F3700089F3700089F3700089F370008C8
:1000C0009F3700089F3700089F3700089F370008B8
:1000D0009F370008F10B00089F3700089F37000882
:1000E0009F3700089F3700089F3700089F37000898
:1000F0009F3700089F3700089F3700089F37000888
:100100009F370008BB3400089F3700089F3700085E
:100110009F3700089F3700089F3700089F37000867
:100120009F3700089F3700089F3700089F37000857
:100130009F3700089F3700089F3700089F37000847
:100140009F3700089F3700089F3700089F37000837
:100150009F3700089F3700089F3700089F37000827
:100160009F3700089F3700089F3700089F37000817
:100170009F3700089F3700089F3700089F37000807
:100180009F3700089F37000800F002F800F06BF876
:100190000AA090E8000C82448344AAF10107DA45E2
:1001A00001D100F060F8AFF2090EBAE80F0013F0C9
:1001B000010F18BFFB1A43F001031847FC79000038
:1001C0001C7A000010F8013B0A4413F0030408BF36
:1001D00010F8014B1D1108BF10F8015B641E05D01B
:1001E00010F8016B641E01F8016BF9D1002D15D0D8
:1001F00010F8014B03F00C030C2BA1EB04040ABF15
:1002000010F8013BA4EB8314A4EB032405F10103D4
:1002100014F8016B5B1E01F8016BF9D5914238BFF0
:1002200010F8013BD1D3704700230024002500269D
:10023000103A28BF78C1FBD8520728BF30C148BF49
:100240000B607047642906F08586782906F0BE8623
:10025000732906F0F787002070471FB507F086F86E
:100260001FBD10B510BD07F051F81146FFF7F5FF9F
:1002700000F0E6F907F06FF803B4FFF7F2FF03BCF4
:1002800000F010FC30BF72B6704762B6704780F362
:10029000088870472A4B19680868B0E8F04F80F367
:1002A0000988BFF36F8F4FF0000080F3118870470B
:1002B0000000000006480068006880F3088862B605
:1002C00061B6BFF34F8FBFF36F8F00DF00BF00BF7A
:1002D00008ED00E0DFF80C00016841F470010160F6
:1002E000704700BF88ED00E0EFF30980BFF36F8F28
:1002F000134B1A681EF0100F08BF20ED108A20E97A
:10030000F04F106008B44FF0500080F31188BFF335
:100310004F8FBFF36F8F05F0BFFD4FF0000080F3EC
:10032000118808BC19680868B0E8F04F1EF0100F7B
:1003300008BFB0EC108A80F30988BFF36F8F704755
:10034000D8080020EFF30580704700000EB52AE0C2
:1003500000235A1E01A9C848006804F01DFFC749C0
:10036000086008460068012805D008460168C4A056
:1003700006F0BAFD17E09DF8040010B1012810D175
:1003800008E010200090022319465A20029A01F03A
:10039000FBF907E0102306210020029A01F043FA3E
:1003A00000E000BF00BFD3E70EB501208DF80400C8
:1003B0004BE0002000F09EFC0446012C02D0022CF1
:1003C0003ED11EE0B548006805F09FFD10200223D5
:1003D0000022042100905A2001F0D6F9B0A002902A
:1003E00000231A4601A9A448006804F00AFDA349A5
:1003F000086008460068012802D0ADA006F074FD30
:1004000022E0A648006805F005FE10200223012224
:10041000042100905A2001F0B7F9AAA0029000230D
:100420001A4601A99448006804F0EBFC934908605F
:1004300008460068012802D0A6A006F055FD03E09A
:10044000C82005F007FC00BF00BFB2E71CB50024C0
:1004500000208DF800002BE0632C01DD002400E07B
:10046000641C4FF4FA7005F0F5FB9F48006808B96A
:10047000012000E000209C4908609C48D0F89C02C4
:1004800008B9012000E000209749091D0860019487
:1004900000231A4669467848006804F0B2FC7749A0
:1004A000086008460068012802D081A006F01CFD03
:1004B000D2E71CB506F069FC00220821042004F0F4
:1004C000F6FB6D4908600846006810B188A006F088
:1004D0000BFD7248022100230A02CDE9001089A118
:1004E0008B4805F038F9654908600846006801281E
:1004F00002D188A006F0F8FC8A48032100234FF4BB
:100500000072CDE9001088A18A4805F024F95B4902
:10051000086008460068012802D187A006F0E4FCC4
:10052000894804210023CA01CDE9001087A18A4827
:1005300005F011F95149086008460068012802D108
:1005400086A006F0D1FC8948006805F052F906F053
:100550003FFC1CBD10B5864890F8560030B101280C
:1005600008D002280AD0032810D10BE081A006F0A1
:10057000BBFC0BE085A006F0B7FC07E089A006F005
:10058000B3FC03E08DA006F0AFFC00BF00BF7848CD
:1005900090F82C108FA006F0A7FC7548B0F8541006
:1005A00093A006F0A1FC7248D0E91220030343EAAD
:1005B000125193A006F098FC6D48016D96A006F0CC
:1005C00093FC10BD10B54FF4407003F0FBF800F041
:1005D00055FB00F074FAA82003F052F800F06CFB11
:1005E00000F0E1FB00F027FE00F0B1FE01F073F92E
:1005F0001FE08FA006F078FC4FF4FA7003F0A2F829
:100600008FA006F071FC4FF4FA7003F09BF83648A7
:10061000006808B9012000E0002033490860334831
:10062000D0F89C0208B9012000E000202E49091DE5
:10063000086001F033FF0028DBD1FFF78BFF10BD0E
:100640001CB50124FFF7BEFF81A006F04DFC474812
:10065000012100234A02CDE9001082A1854805F05E
:100660007AF80446012C02D105F098FD02E04FF023
:10067000FF301CBD00BFFEE7140300201003002064
:100680002078517565756552656365697665206585
:1006900072726F72203078256C780A000003002097
:1006A0005461736B207761697474696E6700000030
:1006B00078517565756553656E64204F4B210A0A44
:1006C000000000005461736B2072756E6E696E6776
:1006D000210000002078517565756553656E6420B2
:1006E0004F4B21210A0A000098024042000040427C
:1006F000785175657565437265617465204F4B214E
:100700000D0A00004C45445F5461736B000000000B
:100710004D0400084C45445F5461736B204F4B21DE
:100720000D0A0000040300204B45595F5461736BB0
:1007300000000000A90300084B45595F5461736B2A
:10074000204F4B210D0A0000080300204F4C454468
:100750005F5461736B0000004D0300084F4C45442B
:100760005F5461736B204F4B210D0A000C03002076
:10077000680A00204361726420547970653A5344DA
:1007800053432056312E310D0A000000436172643C
:1007900020547970653A534453432056322E300D1D
:1007A0000A0000004361726420547970653A534432
:1007B00048432056322E300D0A0000004361726417
:1007C00020547970653A4D4D4320436172640D0A9F
:1007D0000000000043617264204D616E75666163C4
:1007E000747572657249443A25640D0A0000000070
:1007F00043617264205243413A25640D0A000000AF
:10080000436172642043617061636974793A25645D
:10081000204D420D0A0000004361726420426C6F5B
:10082000636B53697A653A25640D0A0D0A0000006E
:1008300053442043617264204572726F722100003C
:10084000506C6561736520436865636B212000000F
:1008500052697665725F5441534B3A3C565F313E64
:100860000A0A00004170705461736B4372656174D1
:1008700065000000B3040008704700BFFEE700BF3A
:10088000FEE700BFFEE700BFFEE7704710B506F0C9
:10089000B7FA10BD0CB500200190009076480068B2
:1008A00040F480307449086000BF7348006800F469
:1008B000003000900198401C0190009818B90198F0
:1008C000B0F5A04FF1D16C48006800F4003010B1D1
:1008D0000120009001E0002000900098012846D1FE
:1008E00065484030006840F08050634940310860FE
:1008F0006248006840F44040604908605E48083043
:1009000000685D49083108600846006840F400400E
:1009100008600846006840F4A05008605848091F65
:100920000860081F006840F08070091F086000BF61
:100930005148006800F000700028F9D040F20570BE
:10094000504908604C480830006820F003004A49CC
:10095000083108600846006840F00200086000BFE7
:1009600045480830006800F00C000828F8D10CBD9C
:1009700010B54548006840F47000434908603E489F
:10098000006840F001003C49086000203A49083105
:100990000860394800683D490840374908603C48CC
:1009A000091D0860081F006820F48020091F0860E6
:1009B000002031490C310860FFF76CFF4FF00060F8
:1009C00031498039086010BD70B500200022022333
:1009D00000240221284D08352D6805F00C0020B1B7
:1009E000042806D0082834D107E02A4D2A4E356065
:1009F00033E02A4D284E35602FE01F4D2D1D2D6808
:100A0000C5F380541C4D2D1D2D6805F03F0154B1D8
:100A1000224DB5FBF1F5184E361D3668C6F3881623
:100A200005FB06F209E01B4DB5FBF1F5124E361D34
:100A30003668C6F3881605FB06F20F4D2D1D2D688E
:100A4000C5F301456D1C6B00B2FBF3F5124E35602A
:100A500003E0104D104E356000BF00BF064D083555
:100A60002D68C5F303150E4E705D0B4D2D68C54006
:100A7000094E356070BD0000003802400070004033
:100A800008544007003C024088ED00E0FFFFF6FEFE
:100A9000103000240024F4001803002000127A0013
:100AA0001C03002000BF704700BF704A128802F08C
:100AB0004002002AF9D0C2B26C4B9A80704700B550
:100AC00087B00121084603F0FFFA0121102003F04E
:100AD00055FB07220921664803F0E3F807220A21A3
:100AE000634803F0DEF84FF4C060059002208DF8F3
:100AF00018008DF8190000208DF81A0001208DF8DB
:100B00001B0005A95A4803F041F84FF4E130019069
:100B10000020ADF80800ADF80A00ADF80C00ADF803
:100B200010000C20ADF80E0001A9504803F087FC1E
:100B300001214E4803F00BFD40214C4803F0EFFD2E
:100B4000012240F22551494803F0B7FD25208DF8D8
:100B5000000003208DF801008DF8020001208DF8BF
:100B60000300684602F033FE07B000BD70B50446CE
:100B70000D462946204603F015FD00BF8021204682
:100B800003F0C0FD0028F9D070BD70B506460C46D4
:100B9000002500BF615D3046FFF7E8FF6D1C605D1A
:100BA0000028F7D100BF4021304603F0ABFD0028FC
:100BB000F9D070BD2DE9F04105460C46260AE7B292
:100BC0003146284603F0EEFC00BF8021284603F0A2
:100BD00099FD0028F9D03946284603F0E3FC00BF10
:100BE0008021284603F08EFD0028F9D0BDE8F08171
:100BF00010B540F225511D4803F09AFD10B31B4873
:100C000003F0D4FCC4B21B48008800F40040C8B90B
:100C10001848008800F4804060B10A2C03D00020FE
:100C20001449088020E01348008840F4004011492E
:100C3000088019E00D2C06D10E48008840F4804051
:100C40000C49088010E00B480088C0F30D000A49E9
:100C50000C5408480088401C064908800846008853
:100C6000C72801DD0020088010BD000000100140F1
:100C70000000024030030020380900201CB501218B
:100C8000084603F021FAC020009001208DF80400EE
:100C900000208DF806008DF8050001208DF8070072
:100CA0006946044802F072FFC021024802F0EAFFE0
:100CB0001CBD0000000002401CB50121112003F002
:100CC00003FA1820009000208DF8040003208DF80E
:100CD000050001208DF8070069462C4802F056FFF8
:100CE0000120009002208DF807006946284802F094
:100CF0004DFF1CBD10B5044614B1012025490870F4
:100D00002448007858B31021204802F0A1FF50B1C8
:100D100008211E4802F09CFF28B101211C4802F066
:100D200097FF01281BD1142004F094FF00201949DB
:100D300008701021154802F08BFF08B9012010BD82
:100D40000821124802F084FF08B90220F7E70121C8
:100D50000F4802F07DFF012815D10420EFE7102194
:100D60000A4802F075FF01280DD10821074802F05A
:100D70006FFF012807D10121054802F069FF10B972
:100D80000120044908700020D9E70000001002404B
:100D90000000024032030020002001E0411CC8B2E4
:100DA0002828FBDB70471CB50121022003F08CF9D9
:100DB0004FF44070009001208DF8040000208DF861
:100DC000060003208DF8050001208DF80700694614
:100DD000B74802F0DBFE0120B6490860B649C1F809
:100DE000A4021CBD1CB504464FF4007000908DF8A1
:100DF000044000208DF8060003208DF80500012036
:100E00008DF807006946AA4802F0C0FE1CBD10B567
:100E10000120FFF7E7FF0120A6490860A649C1F8B5
:100E2000A402FFF7B9FF0020A249091D0860FFF7DF
:100E3000B3FF0020A049C1F8A00210BD10B50120E9
:100E4000FFF7D0FF00209B4908609B49C1F8A4022E
:100E5000FFF7A2FF012097490860FFF79DFF0120DF
:100E60009549C1F8A402FFF797FF10BD70B505467C
:100E700000240120FFF7B6FF00208E490860FFF72D
:100E80008BFF00BF1CE0C4F107010120884028400F
:100E900020B101208749091D086003E00020854931
:100EA000091D0860FFF778FF012082490860FFF7FD
:100EB00073FF00208049C1F8A002FFF76DFF641C9A
:100EC000082CE0D370BD70B5002400250020FFF78A
:100ED00089FF002077490860FFF75EFF00BF14E03C
:100EE000012074490860FFF757FF7348D0F82402C7
:100EF00028B1C4F10701012088402843C5B2002071
:100F00006C490860FFF748FF641C082CE8D32846AA
:100F100070BD10B504460120FFF764FF002065494D
:100F20000860FFF739FF24B101206249091D0860FC
:100F300003E000205F49091D0860FFF72DFF012035
:100F40005C490860FFF728FF00205B49C1F8A00258
:100F5000FFF722FF10BD10B500240020FFF742FF6D
:100F6000012054490860FFF717FF5348D0F82402C6
:100F700018B10124FFF762FF00E0002400204D4972
:100F80000860FFF709FF204610BD2DE9F041064635
:100F90000C4617460025FFF73AFFA020FFF766FF33
:100FA000FFF7D9FF054625B144A005F09DFFBDE838
:100FB000F0814AA005F098FFF106080EFFF756FFF2
:100FC000FFF7C9FF05461DB149A005F08DFFEEE70B
:100FD0004FA005F089FF0BE014F8010BFFF746FF67
:100FE000FFF7B9FF05461DB14FA005F07DFFDEE715
:100FF0003800A7F10101CFB2EED1FFF71FFF51A0DA
:1010000005F072FF00BFD2E72DE9F04107460C461C
:1010100015460026FFF7FBFEA020FFF727FFFFF78E
:101020009AFF064626B125A005F05EFFBDE8F081D7
:101030002AA005F059FFF906080EFFF717FFFFF782
:101040008AFF06461EB144A005F04EFFEEE730A031
:1010500005F04AFFFFF7DBFEA120FFF707FFFFF7D0
:101060007AFF06461EB144A005F03EFFDEE7681E8B
:10107000C5B206E0FFF727FF2070641C0020FFF7D1
:1010800048FF2800A5F10101CDB2F3D1FFF71BFF06
:1010900020702278294641A005F026FF0120FFF7A5
:1010A00038FFFFF7CBFE40A005F01EFF00BFBDE7F5
:1010B00000040240A082404200804042323463304B
:1010C000322061636B2064657669636520616464C6
:1010D00072657373206661696C0D0A003234633087
:1010E00032206973206F6E6C696E650D0A00000016
:1010F00032346330322061636B20776F7264206119
:10110000646472657373206661696C0D0A00000087
:10111000323463303220776F7264206164647265A8
:101120007373206F6B0D0A003234633032206163B9
:101130006B2073656E642064617461206661696C04
:101140000D0A0000323463303220777269746520F2
:101150006F6B0D0A0000000032346330322061638F
:101160006B20776F726420616464726573732031E1
:10117000206661696C0D0A0032346330322061638D
:101180006B2064657669636520616464726573735E
:101190002032206661696C0D0A0000005B25645DE9
:1011A0002564200D0A00000032346330322072655D
:1011B0006164206F6B0D0A0010B50446FFF727FE2F
:1011C0007820FFF753FEFFF7C6FE0020FFF74EFE24
:1011D000FFF7C1FE2046FFF749FEFFF7BCFEFFF711
:1011E0002DFE10BD10B50446FFF711FE7820FFF765
:1011F0003DFEFFF7B0FE4020FFF738FEFFF7ABFEE5
:101200002046FFF733FEFFF7A6FEFFF717FE10BDDF
:1012100070B505460C461CB92846FFF7CDFF02E025
:101220002846FFF7DFFF70BD002000E0401CB0F54E
:101230007A6FFBDB704710B5FFF7F6FF0021AE2099
:10124000FFF7E6FF00210846FFF7E2FF002110202C
:10125000FFF7DEFF00214020FFF7DAFF0021B0207A
:10126000FFF7D6FF00218120FFF7D2FF0021FF20EA
:10127000FFF7CEFF0021A120FFF7CAFF0021A62023
:10128000FFF7C6FF0021A820FFF7C2FF00213F2083
:10129000FFF7BEFF0021C820FFF7BAFF0021D320CF
:1012A000FFF7B6FF00210846FFF7B2FF0021D52067
:1012B000FFF7AEFF00218020FFF7AAFF0021D82012
:1012C000FFF7A6FF00210520FFF7A2FF0021D9208C
:1012D000FFF79EFF0021F120FFF79AFF0021DA209F
:1012E000FFF796FF00211220FFF792FF0021DB207D
:1012F000FFF78EFF00213020FFF78AFF00218D20AD
:10130000FFF786FF00211420FFF782FF0021AF20A6
:10131000FFF77EFF10BD10B500218D20FFF778FF8D
:1013200000211420FFF774FF0021AF20FFF770FFAA
:1013300010BD10B500218D20FFF76AFF002110209D
:10134000FFF766FF0021AE20FFF762FF10BD70B50A
:10135000002419E004F1B001C8B20021FFF758FFE2
:1013600000210846FFF754FF00211020FFF750FF2F
:10137000002505E001210020FFF74AFF681CC5B2E7
:10138000802DF7DB601CC4B2082CE3DB70BD70B5A8
:1013900004460D4605F1B001C8B20021FFF738FF41
:1013A000102141EA14100021FFF732FF04F00F0072
:1013B0000021FFF72DFF70BD2DE9F04180460E465C
:1013C0001546002731464046FFF7E1FF00240AE0BA
:1013D000FE4A02EB8511085D0121FFF719FF781C19
:1013E000C7B2601CC4B2102CF2DB701CC1B2404604
:1013F000FFF7CDFF00240CE06900491CF34A02EB23
:101400004111085D0121FFF703FF781CC7B2601C82
:10141000C4B2102CF0DBBDE8F08110B5024601200B
:1014200000E050430B00A1F10104E1B2F9D110BD7D
:101430002DE9F04707460E469046994600250024C0
:10144000A8F12000C5B27F2F02DD0027B01CC6B274
:10145000B9F1100F23D131463846FFF798FF002429
:1014600008E004EB0511DA4A505C0121FFF7D0FED9
:10147000601CC4B2082CF4DB701CC1B23846FFF704
:1014800086FF002409E004EB05110831D04A505CC6
:101490000121FFF7BDFE601CC4B2082CF3DBBDE8E0
:1014A000F0872DE9FF5F05468B4614464FF0090A89
:1014B00040F6B830844202D9C6A005F015FD4FF4BD
:1014C0007A70B4FBF0F66420B4FBF0F00A21B0FBB4
:1014D000F1F201FB12070A20B4FBF0F0B0FBF1F2CD
:1014E00001FB12080A20B4FBF0F100FB11490A2E9F
:1014F0004CD2DFE806F0050C131A21282F363D44A4
:10150000302259462846039BFFF792FF3EE03122E6
:1015100059462846039BFFF78BFF37E03222594696
:101520002846039BFFF784FF30E0332259462846C4
:10153000039BFFF77DFF29E0342259462846039B91
:10154000FFF776FF22E0352259462846039BFFF736
:101550006FFF1BE0362259462846039BFFF768FFC2
:1015600014E0372259462846039BFFF761FF0DE040
:10157000382259462846039BFFF75AFF06E03922D6
:1015800059462846039BFFF753FF00BF00BF05EBFA
:101590000A00C5B20A2F4CD2DFE807F0050C131A77
:1015A00021282F363D44302259462846039BFFF719
:1015B0003FFF3EE0312259462846039BFFF738FFA4
:1015C00037E0322259462846039BFFF731FF30E0CF
:1015D000332259462846039BFFF72AFF29E034228D
:1015E00059462846039BFFF723FF22E03522594640
:1015F0002846039BFFF71CFF1BE03622594628466E
:10160000039BFFF715FF14E0372259462846039B3A
:10161000FFF70EFF0DE0382259462846039BFFF7DF
:1016200007FF06E0392259462846039BFFF700FFD3
:1016300000BF00BF05EB0A00C5B2B8F10A0F4CD2DB
:10164000DFE808F0050C131A21282F363D4430221C
:1016500059462846039BFFF7EBFE3EE031225946F0
:101660002846039BFFF7E4FE37E03222594628461E
:10167000039BFFF7DDFE30E0332259462846039BEB
:10168000FFF7D6FE29E0342259462846039BFFF790
:10169000CFFE22E0352259462846039BFFF7C8FEBD
:1016A0001BE0362259462846039BFFF7C1FE14E093
:1016B000372259462846039BFFF7BAFE0DE0382231
:1016C00059462846039BFFF7B3FE06E039225946E8
:1016D0002846039BFFF7ACFE00BF00BF05EB0A00E6
:1016E000C5B2B9F10A0F4CD2DFE809F0050C131AA4
:1016F00021282F363D44302259462846039BFFF7C8
:1017000097FE3EE0312259462846039BFFF790FEA4
:1017100037E0322259462846039BFFF789FE30E026
:10172000332259462846039BFFF782FE29E03422E4
:1017300059462846039BFFF77BFE22E03522594697
:101740002846039BFFF774FE1BE0362259462846C5
:10175000039BFFF76DFE14E0372259462846039B92
:10176000FFF766FE0DE0382259462846039BFFF737
:101770005FFE06E0392259462846039BFFF758FED4
:1017800000BF00BFBDE8FF9F2DE9FF5F0746914600
:101790001E460E9D4FF0000A002440E0301B401E04
:1017A000C1B20A20FFF739FEB9FBF0F00A21B0FB05
:1017B000F1F201FB1208BAF1000F1FD1701EA04216
:1017C0001CDDB8F1000F17D1AB4609E03303002050
:1017D0009E75000864617461206572726F7200000A
:1017E00005EBDB71491001FB0471C8B22B462022C6
:1017F0000199FFF71DFE10E04FF0010AAB4605EB23
:10180000DB71491001FB0471C8B208F13001CAB2A2
:101810002B460199FFF70CFE00BF601CC4B2B44216
:10182000BCDBBDE8FF9F2DE9F04104460F4615469D
:10183000984600260FE0AA5D434639462046FFF74A
:10184000F7FD04F10800C4B2782C02DD0024B81CB6
:10185000C7B2701CC6B2A85D0028ECD1BDE8F0810B
:101860002DE9F05F06460F4690461C46DDF828A09D
:101870004FF0000BE11704EB5171C910A4EBC1014B
:1018800031B92046E11704EB5171C1F3C70506E0F9
:101890002046E11704EB5171C910491CCDB23D46F9
:1018A00015E029463046FFF772FDB1460BE0594678
:1018B0000BF1010B1AF801000121FFF7A9FC09F156
:1018C000010000F0FF09C145F1DB681CC5B2A5426B
:1018D000E7DBBDE8F09F08B5102310A20021084601
:1018E000FFF7A1FF102311A202210020FFF79BFFA9
:1018F000102311A204210020FFF795FF10200223DE
:101900000122042100905A20FFF73EFF10230DA270
:1019100006210020FFF787FF08BD00005B467265C7
:101920006552544F535F546573745D005B4C45447E
:101930005F5441534B5D3A005B4B45595F544153F3
:101940004B5D3A005461736B2072756E6E696E6701
:10195000210000000020FE490860091D0860091DE3
:101960000860091D0860FA4924310860091D0860F3
:10197000091D0860F748F649383108600020091D44
:101980000860704701460020012900D011B9F24BD0
:10199000197000E0262070470146ED4A121D1068BC
:1019A00020F0FF0008431060704770B5044606E061
:1019B000E7483430056805F0450000B100E0F7E77E
:1019C00000BF042002F036F820B1042002F03DF8F8
:1019D000032070BD012002F02DF820B1012002F09B
:1019E00034F80120F5E7DA4810300068A04201D051
:1019F0001020EEE740F2FF5002F027F8D4481430F0
:101A0000006808210840C0B2E3E72DE9FC41074621
:101A10000D46002600240020009001900820CF49A8
:101A2000086010204860402088600020C8604FF4A3
:101A300080600861084601F06AFF1020FFF7B5FFDB
:101A4000044614B12046BDE8FC81C5480088000466
:101A5000C249086037204860402088600020C86084
:101A60004FF480600861084601F051FF3720FFF70E
:101A70009CFF04460CB12046E5E74FF0FF30B94922
:101A8000086008204860302088600220C86000207C
:101A9000086101204861084601F065FF0020AF4958
:101AA000086033204860402088600020C8604FF400
:101AB00080600861084601F02AFF3320FFF775FFB8
:101AC00004460CB12046BEE70DE04FF4001001F0D3
:101AD000B1FF40B19E48803000684DF82600761C6A
:101AE000022E00D307E09A483430006840F22A61A1
:101AF00008400028E9D000BF082001F09BFF20B17A
:101B0000082001F0A2FF04209DE7022001F092FFCF
:101B100020B1022001F099FF022094E7202001F07B
:101B200089FF20B1202001F090FF06208BE74FF4C1
:101B3000007001F07FFF28B14FF4007001F085FFC5
:101B4000072080E740F2FF5001F07FFF0098000679
:101B5000009901F47F4140EA0120009901F47F01DE
:101B600040EA1120009940EA11606860019800067F
:101B7000019901F47F4140EA0120019901F47F01BC
:101B800040EA1120019940EA1160286020465AE796
:101B90007CB50546002400200090019000260DB180
:101BA000022600E000266A481430006800F0007049
:101BB00008B10E207CBD6A49098888B26946FFF7E2
:101BC00024FF04460CB12046F4E7019800F480207D
:101BD00060B36348008800046049086037204860AB
:101BE000402088600020C8604FF48060086108468B
:101BF00001F08DFE3720FFF7D8FE04460CB12046D9
:101C0000D8E756480660062054494860402088605E
:101C10000020C8604FF480600861084601F077FE3C
:101C20000620FFF7C2FE04462046C3E72520C1E791
:101C300070B5044600254C480078032802D12725BA
:101C4000284670BD4848007838B1474800780128D8
:101C500003D045480078022819D1B4F5805F02D13D
:101C600027252846EDE7E0B2FFF792FF054675B954
:101C70003748001D006820F4C0503549091D086030
:101C80000846006820430860084600680860284647
:101C9000D7E710B504463148046007202F49486053
:101CA000402088600020C8604FF4806008610846CA
:101CB00001F02DFE0720FFF778FE10BDF0B50146BC
:101CC00000200022284B1B7881F85630244B1B88BB
:101CD000A1F85430254B1B681A0E93090B70C2F300
:101CE00083034B7002F003038B70204B1B68C3F31C
:101CF0000742CA701D4B1B88C3F307220A711B4B96
:101D00001A784A715B681A0E1301CB80174B5B6817
:101D1000C3F30742CB8843EA1213CB8002F00F03D0
:101D20000B72124B9B88C3F30722D3094B72C2F389
:101D300080138B72C2F34013CB72C2F300130B7388
:101D400000234B73084B1B78C3B1074B1B780FE084
:101D5000002C0140FF07C000BC080020180A00202A
:101D6000B80800202C0A0020B4080020440A0020F3
:101D7000012B03D0FE4B1B78032B4FD193071B0D78
:101D80000B61FC4B1A790B6943EA82030B61F94B37
:101D90009B681A0E0B6943EA92130B61C2F3C203EC
:101DA0000B7502F007034B75F24B9B68C3F30742B8
:101DB00053098B75C2F38203CB7593075B0F0B76C8
:101DC000EC4B1B89C3F307220B7E43EAD2130B763D
:101DD0000B695B1C0024C1E912340B7E9B1C01249F
:101DE00004FA03F3DC17D1E91256A5FB037C06FBCA
:101DF00003C305FB0433C1E912730C7A0123A3402A
:101E00000B650024D1E912650B6DA6FB037C05FB75
:101E100003C306FB0433C1E912732EE0D44B1B78D5
:101E2000022B2AD1D34B1A7993069B0A0B61D14B13
:101E30009B681A0E0B6943EA02230B61CD4B9B682A
:101E4000C3F307420B6913430B61CA4B1B89C3F3EE
:101E500007220B695B1C4FF40074A3FB04464FF48C
:101E600080630025A4FB037C06FB03C304FB05334E
:101E7000C1E912734FF400730B65C2F3801301F8CC
:101E8000193F93065B0E4B70BA4B1A7A4B7843EAB4
:101E9000D2134B7002F07F038B70B64BDB681A0EC7
:101EA000D309CB70C2F341130B71C2F382034B71A0
:101EB00093071B0F8B71AF4BDB68C3F307428B7922
:101EC00043EA92138B71C2F34013CB7100230B7260
:101ED00002F001034B72A74B9B89C3F30722D3097E
:101EE0008B72C2F38013CB72C2F340130B73C2F335
:101EF00000134B73C2F381038B7302F00303CB73A4
:101F00009C4B1A7B53080B7401234B749A4B1B6830
:101F10001A0ECA741939984B1B68C3F3074214028E
:101F2000CC85954B1B88C3F30722CB8D1343CB8500
:101F3000914B1A7814060C635B681A0E0B6B43EA1C
:101F400002440C638C4B5B68C3F307420B6B43EAA0
:101F500002240C63884B9B88C3F307220B6B13434B
:101F60000B63854B1A7934235A54834B9B681A0EA2
:101F700035235A54804B9B68C3F3074214068C6385
:101F80007D4B1B89C3F307228B6B43EA02448C63AE
:101F9000794B1A7A8B6B43EA02248C63764BDB68AD
:101FA0001A0E8B6B13438B63734BDB68C3F30742CF
:101FB0003C235B5C43EA12143C235C5413071C0D66
:101FC000CC876D4B9B89C3F30722CB8F1343CB8701
:101FD000694B1A7B540840235C54012441235C5410
:101FE000F0BD70B500264FF4803505E06348046805
:101FF00004F0450000B103E02800A5F10105F5D18A
:1020000000BF15B104F0040028B10326042001F03C
:102010001CFD304670BD012001F00CFD18B10126F9
:10202000012001F012FD40F2FF5001F00EFD30469C
:10203000F0E72DE9F04105460E464FF0000805E0B7
:102040004E48076807F0450000B100E0F8E700BF20
:10205000042001F0EFFC28B1042001F0F6FC03207D
:10206000BDE8F081012001F0E5FC20B1012001F084
:10207000ECFC0120F4E7414824380068A84201D074
:102080001020EDE740F2FF5001F0DFFC3B48203824
:10209000046804F4604018B9200C30804046DFE743
:1020A00004F4005008B11320DAE704F4804008B1CA
:1020B0001020D5E704F4004008B10F20D0E74046D7
:1020C000CEE738B500240120009001F01AFC10B9C9
:1020D0002524204638BD26480078042825D0002035
:1020E0002749086002204860C02088600020C8603E
:1020F0004FF480600861084601F009FCFFF771FFAA
:1021000004460CB12046E5E71C48203800681A490F
:1021100008601A481C380068486018481838006879
:102120008860164814380068C8601148007858B1B3
:102130000F480078012807D00D480078062803D002
:102140000B480078022821D100200D4908600320A7
:102150004860402088600020C8604FF480600861BB
:10216000084601F0D4FB69460320FFF762FF09E04F
:10217000B4080020440A0020540A0020342C0140F6
:10218000180A002004460CB12046A3E7FE48007858
:10219000032816D1BDF800000004FC4908600320A4
:1021A0004860402088600020C8604FF4806008616B
:1021B000084601F0ACFBFFF714FF04460CB12046C3
:1021C00088E7F148007804282AD0BDF80000F049DB
:1021D0000860BDF800000004EC4908600920486070
:1021E000C02088600020C8604FF480600861084605
:1021F00001F08DFBFFF7F5FE04460CB1204669E7C0
:10220000E4480068E4490860E248001D006848604E
:10221000E048083000688860DE480C300068C8601C
:10222000002057E710B506E0DA482030046804F0D3
:10223000450000B100E0F7E700BF042001F0FAFB21
:1022400020B1042001F001FC032010BD40F2FF503A
:1022500001F0FBFB0020F8E770B500264FF4803555
:1022600006E0CC482030046804F0450000B103E0EB
:102270002800A5F10105F4D100BF15B104F0040058
:1022800028B10326042001F0E0FB304670BD04F0C5
:10229000400018B10026402001F0D7FB3046F5E79A
:1022A00070B500254FF4803404E0802001F0C2FBBB
:1022B00000B103E02000A4F10104F6D100BF0CB985
:1022C000032070BD40F2FF5001F0BFFB2846F8E745
:1022D0002DE9F0470027002400260025A046A1464E
:1022E0007620AE4908750020086048608860C860A4
:1022F0000861084601F0E1FA032001F0FEFAA54862
:102300001038006840F48070A2491039086000BF9E
:1023100012E000209D49086048608860C8604FF462
:1023200080600861084601F0F2FAFFF7B9FF044641
:1023300004B903E0781CC7B24A2FEADB00BF14B12E
:102340002046BDE8F0874FF4D5709049086008201A
:102350004860402088600020C8604FF480600861B9
:10236000084601F0D4FAFFF777FF044624B90120AC
:10237000854908704FF08049002084490860372063
:102380004860402088600020C8604FF48060086189
:10239000084601F0BCFA3720FFF707FB0446002C83
:1023A0004BD134E000207949086037204860402054
:1023B00088600020C8604FF480600861084601F022
:1023C000A6FA3720FFF7F1FA04460CB12046B8E729
:1023D000734849EA00006D490860292048604020A0
:1023E00088600020C8604FF480600861084601F0F2
:1023F0008EFAFFF717FF04460CB12046A1E76548A7
:102400000668012080EAD67080F001086D1CB8F1E2
:10241000000F03D14FF6FF708542C3D34FF6FF7014
:10242000854202D31B2420468BE706F0804006003D
:1024300032D00220544908702EE01CE0594853491C
:10244000086001204860402088600020C8604FF488
:1024500080600861084601F05AFAFFF7E3FE04467F
:102460000CB120466DE74B480668012080EAD67023
:1024700080F001086D1CB8F1000F03D14FF6FF701A
:102480008542DBD34FF6FF70854202D31B242046E2
:1024900057E703203C490870204652E73EB5002428
:1024A0000121414801F010FE0121C80201F066FE41
:1024B0000121C80201F0B7FE4FF4F850019002204C
:1024C0008DF808008DF8090000208DF80A00012021
:1024D0008DF80B0001A9354801F058FB042001904C
:1024E00001A9334801F052FB0C2208212F4801F0CA
:1024F000D8FB0C2209212D4801F0D3FB0C220A2124
:102500002A4801F0CEFB0C220B21284801F0C9FB20
:102510000C221146254801F0C4FB0C22022124485C
:1025200001F0BFFB00214FF4006001F07CFEFFF7DB
:1025300011FA31208DF8000000208DF801008DF88F
:10254000020001208DF80300684601F040F9FFF712
:10255000BFFE044614B9FFF7B4FD04461CB9154884
:10256000FFF7ACFB044634B91249B1F85410080423
:10257000FFF78FFB044624B94FF40060FFF758FBC8
:102580000446E4B1004817E0B4080020180A00200F
:10259000B8080020142C0140440A0020000A002042
:1025A000000010800080FF800C0040000008024006
:1025B000000C0240680A00200078032806D10020A1
:1025C000FFF7EAF90020FFF7DDF9044620463EBD9B
:1025D00010B5002001F091F9002010BD70B590B049
:1025E00004460E46154600BFF94802F014FA0028CA
:1025F000FAD1F74802F0E6F84FF000600190F54894
:102600000290039404950020059006904FF480609A
:102610000790800008908000099000200A904FF4F5
:1026200040300B9004200C9003200D904FF40000DC
:102630000E9080100F9001A9E54802F065F9202165
:10264000E34802F0B1F90121E14802F097F910B036
:1026500070BD0146002002E04910421CD0B20129A1
:10266000FAD170472DE9F84F8146174698460A9CE3
:102670004FF0000AD3464D464FF0FF36B9F1000F38
:1026800002D12620BDE8F88F0020D24954390860D5
:10269000D1480078022805D10402780A40EAC857D8
:1026A0004FEA68280020CD4988604860401E0860D5
:1026B000012048610020C8600861084601F053F914
:1026C000C4486C38006800F0007008B10E20D9E7EB
:1026D000002C21DDB4F5006F1EDC601E2040D8B94F
:1026E0002046FFF7B6FF0090BD4804601020BC49AB
:1026F0004860402088600020C8604FF48060086116
:10270000084601F004F91020FFF74FF98246BAF1AC
:10271000000F03D05046B5E72620B3E7009800012C
:10272000AE498860084644604FF0FF3008600120E1
:1027300048610220C86000200861084601F013F9D2
:10274000A74807601120A649486040208860002003
:10275000C8604FF480600861084601F0D8F8112085
:10276000FFF723F98246BAF1000F01D0504689E7FE
:102770009C48007800285AD1FDF785FD17E04FF4FA
:10278000004001F057F970B14FF0000B05E091489F
:10279000006845F82B000BF1010BBBF1080FF6D3D5
:1027A0002035914E03E00EB904206BE7761E894870
:1027B0004C38006840F22A6108400028DFD0082029
:1027C00001F038F920B1082001F03FF9042059E761
:1027D000022001F02FF920B1022001F036F9022089
:1027E00050E7202001F026F920B1202001F02DF93A
:1027F000062047E74FF4007001F01CF928B14FF4B0
:10280000007001F022F907203CE703E071480068FE
:1028100028602D1D4FF4001001F00CF90028F5D1AF
:10282000FDF733FD40F2FF5001F00FF939E06D483C
:102830000078012835D100206C4908706C49087077
:102840006C49087063484438006840F22A310843F4
:102850006049443908605F485438006840F0080017
:102860005C4954390860002221464846FFF7B6FE0D
:1028700000E0761E56485838006800F0006038B90D
:102880005C48007820B95948007808B9002EF0D18A
:102890000EB90420F6E65548007810B1534890F878
:1028A00000A05046EEE62DE9FF5F17469846DDE9A9
:1028B0000E464FF00009CA464FF0FF354E490098CA
:1028C00008600020434954390860434800780228D2
:1028D00005D10402780A40EAC8574FEA6828002068
:1028E0003E4988604860401E086001204861002021
:1028F000C8600861084601F036F836486C38006850
:1029000000F0007018B10E2004B0BDE8F09F002C5C
:1029100021DDB4F5006F1EDC601E2040D8B92046D2
:10292000FFF797FE83462E48046010202C4948602C
:10293000402088600020C8604FF48060086108462D
:1029400000F0E5FF1020FFF730F88146B9F1000FE5
:1029500003D04846D8E72620D6E7012E7DD906FBCE
:1029600004F0B0F1007F01D32620CDE74FEA0B1031
:102970001A49886006FB04F048604FF0FF30086099
:10298000012048610220C86000200861084600F06C
:10299000EAFF134807601220114948604020886010
:1029A0000020C8604FF480600861084600F0AFFF67
:1029B0001220FEF7FAFF8146B9F1000F01D0484618
:1029C000A2E70848007800287ED1FDF75CFC33E0E0
:1029D00058640240802C0140B40800202C0A0020DA
:1029E000180A0020BC080020FFFF7F00BE0800205E
:1029F000BD080020BF080020C00800204FF40040A0
:102A000001F018F8A0B14FF0000A07E0FE48006896
:102A1000FE49096841F82A000AF1010ABAF1080FD3
:102A2000F4D3FA4800682030F8490860F84D03E014
:102A30000DB9042068E76D1EF3484C38006840F279
:102A40002A3108400028D9D0082000F0F3FF28B12F
:102A5000082000F0FAFF042056E79CE0022000F076
:102A6000E9FF20B1022000F0F0FF02204CE7202017
:102A700000F0E0FF20B1202000F0E7FF062043E750
:102A80004FF4007000F0D6FF28B14FF4007000F052
:102A9000DCFF072038E709E0DB480068DB4909680C
:102AA0000860DA480068001DD84908604FF400103B
:102AB00000F0C0FF0028EFD14FF4807000F0BAFFA3
:102AC00020B3D448007800E027E038B1D14800783E
:102AD000012803D0CF480078022817D10020CE4922
:102AE00008600C204860402088600020C8604FF4D7
:102AF00080600861084600F00AFF0C20FEF755FFD1
:102B00008146B9F1000F01D04846FDE6FDF7BDFB57
:102B100040F2FF5000F099FF3DE0C04800780128E6
:102B200039D10020BE4908700120BE49087000203C
:102B3000BD490870B4484438006840F22A3108435F
:102B4000B14944390860B0485438006840F0080082
:102B5000AD495439086006FB04F100220098FFF7E4
:102B60003DFD00E06D1EB148006800F0006008B94E
:102B7000002DF7D10DB90420C6E600BFAA480078A1
:102B800018B9A74800780028F8D0A548007810B1F7
:102B9000A34890F800904846B6E61CB504460020CD
:102BA00001900090A248008800049B4908600D2015
:102BB0004860402088600020C8604FF48060086151
:102BC000084600F0A4FE90484C380068009003E0EE
:102BD0008D484C3800680090009800F045000028AF
:102BE000F6D0012000F026FF20B1012000F02DFFDB
:102BF00001201CBD042000F01DFF20B1042000F0C6
:102C000024FF0320F5E78048703800680D2801D0C4
:102C10001020EEE740F2FF5000F017FF7A486C38C2
:102C2000006801900198C0F3432020700020E0E785
:102C30002DE9FF5F86B017469846149D00260020B8
:102C400005900490002481460390824602900195ED
:102C5000DDF818B0DDF818B0BBF1000F03D1262065
:102C60000AB0BDE8F09F00206749543908607149F7
:102C700088604860401E0860012048610020C860EC
:102C80000861084600F06FFE5F486C38006800F08D
:102C9000007008B10E20E3E75E480078022805D1F5
:102CA0000502780A40EAC8574FEA6828002D1FDD60
:102CB000B5F5006F1CDC681E2840C8B92846FFF730
:102CC000C8FC0590544805601020534948604020D6
:102CD00088600020C8604FF480600861084600F0FA
:102CE00016FE1020FEF761FE06461EB13046B7E71D
:102CF0002620B5E74E4800880004474908600D20AB
:102D00004860402088600020C8604FF480600861FF
:102D1000084600F0FCFD0D20FEF747FE06460EB10A
:102D200030469DE738486C38006803904FF0FF3418
:102D30001CE0641E3E4800880004374908600D20EE
:102D40004860402088600020C8604FF480600861BF
:102D5000084600F0DCFD0D20FEF727FE06460EB10A
:102D600030467DE728486C3800680390039800F4EB
:102D7000807008B9002CDCD10CB9292070E72648F6
:102D80000760182024494860402088600020C860FF
:102D90004FF480600861084600F0B9FD1820FEF786
:102DA00004FE06460EB130465AE700201D49087061
:102DB000059800011F498860084645604FF0FF30C4
:102DC0000860012048610020C8600861084600F0E2
:102DD000CAFD4FF0FF3411480078002870D1FDF78C
:102DE00052FA5CE04FF4804000F024FE88B3019872
:102DF000A0EB090020283BD20198A0EB090000F0CD
:102E00000300E8B9019817E0802C0140C0080020B9
:102E1000FFFF7F00B4080020180A0020BC08002033
:102E2000BE080020BD080020BF080020006402404A
:102E3000B80800202C0A0020A0EB0900800804E05C
:102E40000198A0EB09008008401C02904FF0000A96
:102E50000AE020E0F849DBF8000008600AF1010A06
:102E60000BF1040B09F1040902988245F2D30FE03B
:102E70004FF0000A05E05BF82A00EF4908600AF10C
:102E8000010ABAF1080FF6D30BF1200B09F1200962
:102E90006FF0404403E00CB90420E1E6641EE6480C
:102EA0004C38006840F21A61084000289AD0082087
:102EB00000F0C0FD28B1082000F0C7FD0420CFE6D7
:102EC00023E0022000F0B6FD20B1022000F0BDFD9D
:102ED0000220C5E6102000F0ADFD20B1102000F06A
:102EE000B4FD0520BCE64FF4007000F0A3FD28B14E
:102EF0004FF4007000F0A9FD0720B1E6FDF7C5F919
:102F000040F2FF5000F0A1FD43E0CC4800780128DA
:102F10003FD10020CA490870CA490870CA490870E0
:102F2000C5484438006840F21A310843C249443960
:102F30000860402229460698FFF750FBBE485438E7
:102F4000006840F00800BC495439086000E0641E85
:102F5000BE48006800F0006008B9002CF7D11CB929
:102F6000FFF79CFA04207BE64FF0FF3400E0641E7C
:102F7000B548007820B9B248007808B9002CF6D1DD
:102F80000CB904206CE6AE48007810B1AC4800786B
:102F900066E640F2FF5000F058FD04A8FFF7FDFD83
:102FA000064603E004A8FFF7F8FD06463EB99DF883
:102FB00010000728F6D09DF810000628F2D0304601
:102FC0004EE62DE9FF5F84B0DDE9124700260020C0
:102FD00003900290002580468146019007FB04FB88
:102FE000DDF810A0DDF810A0BAF1000F03D1262003
:102FF00008B0BDE8F09F00208F495439086094491B
:1030000088604860401E0860012048610020C86058
:103010000861084600F0A7FC87486C38006800F09B
:10302000007008B10E20E3E78A480078022808D132
:103030000402DDE90601400A40EAC1504912CDE927
:103040000601002C1FDDB4F5006F1CDC601E204063
:10305000C8B92046FFF7FDFA03907F4804601020AE
:103060007D494860402088600020C8604FF480603F
:103070000861084600F04BFC1020FEF796FC06465F
:103080001EB13046B4E72620B2E7012F6FD907FB07
:1030900004F0B0F1007F01D32620A9E76D48007845
:1030A00038B16C480078012803D06A4800780228BB
:1030B0002DD16A48008800046749086037204860BD
:1030C000402088600020C8604FF480600861084696
:1030D00000F01DFC3720FEF768FC06460EB13046B6
:1030E00086E75D48076017205B494860402088609C
:1030F0000020C8604FF480600861084600F007FCBB
:103100001720FEF752FC06460EB1304670E75249D2
:103110000698086019204860402088600020C86038
:103120004FF480600861084600F0F1FB1920FEF7BB
:103130003CFC06460EB130465AE70398000144496C
:10314000886007FB04F048604FF0FF300860012002
:1031500048610020C8600861084600F004FC374858
:103160000078002867D1451EFDF78DF840E0F6E0B5
:103170004FF4804000F05EFCA8B3ABEB08002028C1
:103180001ED2ABEB080000F0030018B9ABEB08004F
:10319000800803E0ABEB08008008401C01904FF072
:1031A000000909E02449DAF80000086009F1010982
:1031B0000AF1040A08F1040801988145F2D30FE0EE
:1031C0004FF0000905E05AF829001B49086009F191
:1031D0000109B9F1080FF6D30AF1200A08F1200815
:1031E0006FF0404504E0FFE70DB9042000E76D1ED5
:1031F00011484C38006840F21A3108400028B7D016
:10320000082000F017FC20B1082000F01EFC04206C
:10321000EEE6022000F00EFC20B1022000F015FCCA
:103220000220E5E6102000F005FCC8B1102000F0F7
:103230000CFC0520DCE64BE0802C0140BC080020A3
:10324000BE080020BD080020BF0800200064024026
:103250002C0A0020B4080020180A0020B80800201A
:103260004FF4007000F0E6FB28B14FF4007000F05E
:10327000ECFB0720BCE64FF4807000F0DBFB00B3F2
:10328000F548007838B1F4480078012803D0F248B6
:103290000078022815D10020F04908600C20486011
:1032A000402088600020C8604FF4806008610846B4
:1032B00000F02DFB0C20FEF778FB06460EB13046E1
:1032C00096E6FCF7E2FF40F2FF5000F0BEFB46E05E
:1032D000E3480078012842D10020E249087001202B
:1032E000E14908700020E1490870E148006840F2B7
:1032F0001A310843DE49086007FB04F140220498B4
:10330000FFF76CF9DA481038006840F00800D84937
:10331000103908604FF0FF3500E06D1ED548006899
:1033200000F0006008B9002DF7D11DB9FFF7B6F81D
:1033300004205DE64FF0FF3500E06D1ECB480078BD
:1033400020B9C848007808B9002DF6D10DB904207D
:103350004EE6C448007810B1C248007848E640F212
:10336000FF5000F072FB02A8FFF717FC064603E0CF
:1033700002A8FFF712FC06463EB99DF80800072890
:10338000F6D09DF808000628F2D0304630E610B599
:103390004FF4807000F04EFB80B3B34800780128F2
:1033A00014D10020AD4908600C204860402088609E
:1033B0000020C8604FF480600861084600F0A7FA5A
:1033C0000C20FEF7F2FAA749087002E00020A54998
:1033D0000870A748001F006840F48070A449091FC6
:1033E0000860081D00684CF23A318843A049086023
:1033F00001209E4908709B48007810BDFFE702201D
:1034000000F018FB68B1022000F01FFB984800682C
:103410004CF23A318843964908600220914908707D
:10342000EBE7082000F006FB68B1082000F00DFB78
:103430008F4800684CF23A3188438D490860042077
:1034400088490870D9E7202000F0F4FA68B12020FC
:1034500000F0FBFA864800684CF23A318843844910
:10346000086006207F490870C7E7102000F0E2FAE4
:1034700068B1102000F0E9FA7D4800684CF23A315A
:1034800088437B490860052076490870B5E74FF40A
:10349000007000F0CFFA70B14FF4007000F0D5FA70
:1034A000734800684CF23A3188437149086007203C
:1034B0006C490870A1E700209FE710B5FFF767FF90
:1034C00010BD70B50446002514B92625284670BDE8
:1034D000694800880004614908600D204860402068
:1034E00088600020C8604FF480600861084600F0E2
:1034F0000EFA0D20FEF759FA05460DB12846E6E70B
:103500005B482838006820602846E0E708B50020BE
:1035100000906846FFF7D5FF08B1FF2008BD00986E
:10352000C0F34320FAE72DE9FE4F83460E4691464D
:1035300000200290002534464748007818B1680200
:1035400040EAD45564020BF00300F0B14FF0000ADA
:1035500018E04FF4007000904FEA4A20071945EB3D
:10356000E0733A464548FFF77DF802904FF4007249
:103570004249584603F0B2FD0BF5007B0AF1010009
:1035800000F0FF0ACA45E4DB16E0B9F1010F09D1EA
:103590004FF4007022462B4600905846FFF762F821
:1035A000029009E04FF4007022462B46CDE9000955
:1035B0005846FFF778F902900298BDE8FE8F2DE992
:1035C000FE4F0646894692460020029000254C4652
:1035D0002148007818B1680240EAD455640206F028
:1035E0000300F0B14FF0000B18E04FF400723146C9
:1035F000224803F073FD4FF4007000904FEA4B2017
:10360000071945EBE0733A461C48FFF711FB02909F
:1036100006F500760BF1010000F0FF0BD345E4DB6B
:1036200016E0BAF1010F09D14FF4007022462B4683
:1036300000903046FFF7FCFA029009E04FF400706A
:1036400022462B46CDE9000A3046FFF7BAFC02902D
:103650000298BDE8FE8F0000B4080020180A002080
:10366000BC080020BE080020BD080020BF080020C4
:103670003C2C014000640240B8080020C00A002031
:1036800010B504466FF0040000F0EEF8E11704EB0B
:103690005171C1F3C701394A11701046007800EB2F
:1036A0004001C1EBC0104FF6FF7101EAC000344980
:1036B000088010BD0146314A12784A434FF0E0239A
:1036C0005A6100229A611A46126942F001021A6197
:1036D00000BF4FF0E022106900F001021AB100F4BF
:1036E0008032002AF5D04FF0E022126922F0010268
:1036F0004FF0E0231A6100229A6170470146204A88
:1037000012884A434FF0E0235A6100229A611A4618
:10371000126942F001021A6100BF4FF0E022106905
:1037200000F001021AB100F48032002AF5D04FF007
:10373000E022126922F001024FF0E0231A61002218
:103740009A61704770B504464FF4077094FBF0F02F
:10375000C6B24FF4077094FBF0F100FB114085B244
:1037600005E04FF40770FFF7C9FF701EC6B2002EC8
:10377000F7D115B12846FFF7C1FF70BDC40800207E
:10378000C60800200948804709480047FEE7FEE7D1
:10379000FEE7FEE7FEE7FEE7FEE7FEE7FEE7FEE701
:1037A00004480549054A064B7047000071090008A6
:1037B0008901000858A0002058A6002058A2002027
:1037C00058A2002032490143324A1160704770B557
:1037D000002100230F22C4781CB32E4C246804F46B
:1037E000E064C4F5E064C4F30721C1F10404E3B26A
:1037F0000A4144789C40E1B28478144021430C078C
:10380000210E254C05786155047804F01F0501242C
:10381000AC4005786D11AD0005F1E025C5F800411B
:1038200009E0047804F01F050124AC401B4D067824
:10383000761145F8264070BD194A0A400243154BDF
:103840001B1F1A60704739B1124A121D12680243D9
:10385000104B1B1D1A6006E00E4A121D12688243AF
:103860000C4B1B1D1A607047042808D14FF0E02153
:10387000096941F004014FF0E022116107E04FF0C7
:10388000E021096921F004014FF0E0221161704745
:103890000000FA050CED00E000E400E080E100E04B
:1038A00080FFFF1F10B50121C80200F0BCFC002101
:1038B0004FF4006000F0B7FC10BD00216C4A1168A5
:1038C00047F6FF629143027D83681A4343681A43B7
:1038D000C3681A4303681A4303691A431143644ACD
:1038E0001160704700210175016041608160C16015
:1038F000016170475F49086070475D49091F0860B2
:1039000070475B48001F006800F00300704700210B
:10391000574B1B1D02681A601A1D11686FF30A01CC
:10392000D0E901231A43C3681A4303691A431143B8
:103930004F4A083211607047002101604160816088
:10394000C160016170474A480C300068C0B27047DE
:1039500008B501460020009045481030084400900A
:103960000098006808BD0021414B203302681A60AE
:103970001B1D42681A601A1D116821F0F701D0E979
:1039800002231A4303691A4343691A431143384A0D
:103990002832116070474FF0FF3101600021416013
:1039A0008160C16001614161704731482C3000681D
:1039B00070472F487C30006870472D497C31086083
:1039C00070472B484430006870472B4908607047A7
:1039D0002949091D08607047274908310860704768
:1039E00025490C3108607047244908607047234915
:1039F000091D0860704701218143204A0832116087
:103A000070471E490C31086070471B491439086023
:103A1000704739B1164A383212680243144B3833B2
:103A20001A6006E0124A383212688243104B38336B
:103A30001A607047014600200D4A303212680A4071
:103A40000AB1012000E000207047094934310860C4
:103A5000704701460020064A303212680A400AB117
:103A6000012000E0002070470149343108607047B0
:103A7000042C0140A0802542A0852542AC8125422E
:103A800010B504469848844208D10121084600F048
:103A900086FB0021012000F082FB76E093488442FF
:103AA00008D10121022000F07AFB0021022000F061
:103AB00076FB6AE08E48844208D10121042000F0A0
:103AC0006EFB0021042000F06AFB5EE0894884421E
:103AD00008D10121082000F062FB0021082000F03D
:103AE0005EFB52E08448844208D10121102000F09E
:103AF00056FB0021102000F052FB46E07F48844234
:103B000008D10121202000F04AFB0021202000F0F4
:103B100046FB3AE07A48844208D10121402000F077
:103B20003EFB0021402000F03AFB2EE07548844225
:103B300008D10121802000F032FB0021802000F01C
:103B40002EFB22E07048844208D10121801500F04C
:103B500026FB0021A01500F022FB16E06B488442F2
:103B600008D10121401500F01AFB0021601500F07A
:103B700016FB0AE06648844207D10121001500F0D7
:103B80000EFB0021201500F00AFB10BDF0B50A461F
:103B900000210023002400BF3DE0012505FA01F3C8
:103BA000156805EA03049C4234D105684F000326DA
:103BB000BE40B543056015794E00B54006683543F3
:103BC00005601579012D02D01579022D16D1856871
:103BD0004F000326BE40B543856055794E00B54081
:103BE000866835438560456801268E40B54345604B
:103BF000456896798E40B6B235434560C5684F003A
:103C00000326BE40B543C560D5794E00B540C668B1
:103C10003543C560491C1029BFD3F0BD4FF6FF7175
:103C200001600021017141718171C171704708B556
:103C30004FF480320092009A0A430092009AC261C7
:103C4000C161009AC261C2690092C269009208BD56
:103C50000246002013690B400BB1012000E0002058
:103C600070470146086980B27047024600205369D8
:103C70000B400BB1012000E000207047014648696D
:103C800080B2704701837047418370470AB1018356
:103C900000E0418370474161704742694A40426198
:103CA0007047F0B5002300244D07ED0E02FA05F32E
:103CB000CE1000F1200555F826504E07F70E0F26BE
:103CC000BE40B543CF1000F1200646F82750CE1075
:103CD00000F1200555F8265045EA0304CE1000F106
:103CE000200545F82640F0BD0000024000040240D7
:103CF00000080240000C0240001002400014024084
:103D000000180240001C0240002002400024024033
:103D100000280240F948006840F00100F7490860B7
:103D20000020F64908310860F4480068F44908406A
:103D3000F2490860F348091D0860F348EF498431EF
:103D40000860F0481038091D0860EC48006820F44D
:103D50008020EA4908600020E8490C310860E74902
:103D60008C31086070470021E44A921C11701146A2
:103D70000870704710B501460022002300204A1148
:103D8000012A02D1DD4C236808E0022A03D1DB4C72
:103D90007034236802E0D94C7434236801F01F02A8
:103DA000012494401C400CB1012000E0002010BD13
:103DB00038B5002000900024002500BF3120FFF717
:103DC000D9FF05460098401C00900098B0F5A04F20
:103DD00001D0002DF2D03120FFF7CCFF08B1012433
:103DE00000E00024204638BD01460020C34A106888
:103DF00020F0F80040EAC10010607047C349086035
:103E000070470021BD4A703211701170012802D034
:103E100004280AD104E00121B84A7032117005E08B
:103E20000521B64A7032117000E000BF00BF704734
:103E3000B7490860704770B5049C41EA82150126B5
:103E4000C6EB530645EA0645054345EA0465AB4E15
:103E5000361D356070BDAD4908667047820142EA83
:103E60000172A64B84331A607047A8498866704770
:103E700010B5830143EA016343EA02739F4C88341F
:103E8000236010BDA14908677047A049C864704706
:103E900002460020994B0833186820F0EC6042EA93
:103EA00001031843954B0833186070470246002001
:103EB000924B0833186820F0784042EA0103184317
:103EC0008E4B083318607047014600208B4A083239
:103ED000106820F0030008431060704787480830DE
:103EE000006800F00C00704701460020834A083249
:103EF000106820F0F0000843106070470146002071
:103F00007E4A0832106820F4E05008431060704781
:103F100001460020794A0832106820F4604040EAE7
:103F2000C10010607047F0B5002100220024022576
:103F300000260223714F08373F6807F00C0121B1BA
:103F4000042905D0082937D105E0724F076036E013
:103F5000714F076033E0694F3F1D3F68C7F38056DC
:103F6000664F3F1D3F6807F03F036EB16A4FB7FBD6
:103F7000F3F7DFF888C10CF1040CDCF800C0CCF3D7
:103F8000881C07FB0CF40CE0624FB7FBF3F7DFF87B
:103F90006CC10CF1040CDCF800C0CCF3881C07FBEE
:103FA0000CF4564F3F1D3F68C7F301477F1C7D004F
:103FB000B4FBF5F7076002E0564F076000BF00BF93
:103FC0004E4F08373F6807F0F0010909534F7A5CFC
:103FD0000768D7404760494F08373F6807F4E0510A
:103FE000890A4E4F7A5C4768D7408760434F08374D
:103FF0003F6807F46041490B484F7A5C4768D740F7
:10400000C760F0BD002100F44072B2F5407F0AD1D4
:104010003A4A0832116821F4F811414A024011432A
:10402000364A08321160354A70321268C0F30B0309
:104030001A43324B70331A6070473549443908606F
:104040007047334940390860704736490860704707
:1040500001460020294A8C32106820F01F004A1EB9
:104060001043264A8C321060704701460020234AD4
:104070008C32106820F4F8504A1E40EA02201F4A91
:104080008C3210607047014600201C4A8C32106848
:1040900020F4401008431060704701460020174A82
:1040A0008C32106820F440000843106070470146CD
:1040B0000020124A8C32106820F44030084310600F
:1040C000704719490860704739B10C4A303212689C
:1040D00002430A4B30331A6006E0084A3032126855
:1040E0008243064B30331A607047F9B1034A3432C9
:1040F00012680243014B34331A601CE0003802405E
:10410000FFFFF6EA10300024003000200000474294
:10411000800E47420024F40000127A00C8080020F4
:10412000FFFCFF0F5C014742E01147428F4A1268D3
:1041300082438E4B1A60704739B18C4A121D126847
:1041400002438A4B1B1D1A6006E0884A121D126842
:104150008243864B1B1D1A60704739B1834A0C326B
:1041600012680243814B0C331A6006E07F4A0C321E
:10417000126882437D4B0C331A60704739B17B4A19
:10418000103212680243794B10331A6006E0774A06
:10419000103212688243754B10331A60704739B180
:1041A000724A243A12680243704B243B1A6006E0BC
:1041B0006E4A243A126882436C4B243B1A60704763
:1041C00039B16A4A203A12680243684B203B1A60B0
:1041D00006E0664A203A12688243644B203B1A602C
:1041E000704739B1614A1C3A126802435F4B1C3B6D
:1041F0001A6006E05D4A1C3A126882435B4B1C3B26
:104200001A60704739B1594A143A12680243574B41
:10421000143B1A6006E0554A143A12688243534B25
:10422000143B1A60704739B1504A103A1268024381
:104230004E4B103B1A6006E04C4A103A126882431B
:104240004A4B103B1A60704739B1484A1C32126819
:104250000243464B1C331A6006E0444A1C32126883
:104260008243424B1C331A60704739B13F4A2032B7
:10427000126802433D4B20331A6006E03B4A20326D
:1042800012688243394B20331A60704739B1374A7C
:10429000243212680243354B24331A6006E0334A55
:1042A000243212688243314B24331A60704739B18B
:1042B0002E4A2C32126802432C4B2C331A6006E033
:1042C0002A4A2C3212688243284B2C331A607047DA
:1042D00039B1264A303212680243244B30331A6017
:1042E00006E0224A303212688243204B30331A6093
:1042F0007047012808D11D493C31096841F0080187
:104300001A4A3C32116007E018493C31096821F033
:104310000801164A3C321160704739B1134A273AF6
:1043200012780243114B273B1A7006E00F4A273AD6
:10433000127882430D4B273B1A7070470B48403070
:10434000006840F0807009494031086070470146BC
:104350000020064A283A12680A400AB1012000E00B
:1043600000207047014926390870704734380240F0
:1043700010B50446FA48844208D101211020FFF705
:1043800052FF00211020FFF74EFF57E0F54884420E
:1043900009D101214804FFF735FF00214FF4003017
:1043A000FFF730FF4AE0F048844209D10121880438
:1043B000FFF728FF00214FF48020FFF723FF3DE0A7
:1043C000EA48844209D10121C804FFF71BFF0021FC
:1043D0004FF40020FFF716FF30E0E548844209D192
:1043E00001210805FFF70EFF00214FF48010FFF7B1
:1043F00009FF23E0DF48844208D101212020FFF794
:1044000012FF00212020FFF70EFF17E0DA48844258
:1044100009D101218807FFF7F5FE00214FF0804008
:10442000FFF7F0FE0AE0D548844207D1012140059C
:10443000FFF7E8FE00216005FFF7E4FE10BD2DE95F
:10444000FF4705460E460024A14600BFA046B0899E
:1044500000B100BF2C8A24F44054F08804432C821D
:10446000AC8941F20C608443B0883189084371897A
:1044700008430443AC81AC8A24F44074B0890443FB
:10448000AC826846FFF74FFDB548854202D0B94877
:10449000854202D1DDF80C9001E0DDF80890A88992
:1044A00000F4004040B109EBC90000EB091031688D
:1044B0004900B0FBF1F707E009EBC90000EB091078
:1044C00031688900B0FBF1F76420B7FBF0F004011C
:1044D0002009642101FB1078A88900F4004040B154
:1044E000322000EBC800B0FBF1F000F007000443FD
:1044F00008E0322000EB08106421B0FBF1F000F07E
:104500000F0004432C81BDE8FF874FF41651016072
:1045100000218180C18001810C21418100218181A4
:10452000704710B502460020108A20F470600B8896
:104530004C8823438C882343CC8823431843108220
:1045400010BD0021018041808180C180704721B170
:10455000828942F40052828104E082894DF6FF7321
:104560001A4082817047028B02F47F420283028BE1
:104570000A430283704721B1828942F4004282815A
:1045800003E08289C2F30E028281704721B1828AE0
:1045900042F40062828204E0828A4FF2FF731A4082
:1045A00082827047C1F30802828070470146888882
:1045B000C0F308007047028A4FF6F0731A40028277
:1045C000028A0A430282704721B1828942F00202C4
:1045D000828104E082894FF6FD731A408281704720
:1045E00082894FF2FF731A40828182890A43828155
:1045F0007047028A4FF6DF731A400282028A0A432A
:104600000282704721B1028A42F48042028204E0B1
:10461000028A4BF6FF731A4002827047818941F08B
:1046200001018181704721B1828A42F008028282B1
:1046300004E0828A4FF6F7731A4082827047028B39
:10464000D2B20283028B42EA01220283704721B177
:10465000828A42F02002828204E0828A4FF6DF736F
:104660001A408282704721B1828A42F0100282820F
:1046700004E0828A4FF6EF731A4082827047828A82
:104680004FF6FB731A408282828A0A438282704705
:1046900021B1828A42F00202828204E0828A4FF6CD
:1046A000FD731A40828270471AB1838A0B4383825A
:1046B00002E0838A8B4383827047F0B5034600246F
:1046C00000260025002040F66A17B94200D100BF3D
:1046D0001846C1F3421401F01F06012707FA06F538
:1046E000012C01D10C3004E0022C01D1103000E08B
:1046F00014301AB107682F43076002E00768AF4320
:104700000760F0BD02460020B1F5007F00D100BF78
:1047100013880B400BB1012000E00020704701F42A
:104720000072B2F5007F00D100BFCA43028070471B
:1047300070B50246002400230025002040F66A16CA
:10474000B14200D100BFC1F3421501F01F030126A1
:1047500006FA03F3012D13D19689334017E00000C8
:10476000001001400044004000480040004C004060
:10477000005000400014014000780040007C0040E0
:10478000022D02D1168A334001E0968A33400C1282
:10479000012606FA04F41688344013B10CB1012046
:1047A00000E0002070BD10B50022002340F66A141E
:1047B000A14200D100BF0A1201249440A3B2DC43FD
:1047C000048010BD016821F0010101600021016039
:1047D00041608160C160016121214161DB49884202
:1047E00004D13D21D94A103A91608CE0D749183163
:1047F000884205D14FF47461D44A103A916082E046
:10480000D2493031884205D14FF47411CF4A103A61
:10481000916078E0CD494831884205D14FF074610C
:10482000CA4A103A91606EE0C8496031884204D1AA
:10483000C749C64A103AD16065E0C4497831884218
:1048400004D1C449C14A103AD1605CE0BF499031FB
:10485000884204D1C049BD4A103AD16053E0BB49F7
:10486000A831884205D14FF03D51B84A103AD16085
:1048700049E0BA49884204D13D21B84A083A11605A
:1048800041E0B6491831884205D14FF47461B34A0A
:10489000083A116037E0B1493031884205D14FF410
:1048A0007411AE4A083A11602DE0AC494831884293
:1048B00005D14FF07461A94A083A116023E0A74975
:1048C0006031884204D1A249A44A121F11601AE043
:1048D000A2497831884204D19E49A04A121F116032
:1048E00011E09E499031884204D19B499B4A121F96
:1048F000116008E09949A831884204D14FF03D5138
:10490000964A121F1160704710B500220268944B3E
:104910001A40CC680B6823434C6923438C692343BA
:10492000CC6923430C6A23434C6A23438C6A234398
:104930004C6B23438C6B23431A430260426922F081
:104940000702D1E90B3423431A4342610B694360E8
:104950004B6883608B68C36010BD002101604160BB
:104960008160C160016141618161C1610162416237
:104970008162C162016341638163704721B1026852
:1049800042F00102026003E0026822F001020260CC
:10499000704721B1026842F40042026003E00268FD
:1049A00022F400420260704721B1026842F0200206
:1049B000026003E0026822F020020260704741605A
:1049C00070470146486880B2704722B1036843F4DB
:1049D0000023036003E0036823F400230360016104
:1049E000704721B1026842F48022026003E002684D
:1049F00022F48022026070470AB1016100E0C160C8
:104A00007047014600200A6802F400220AB1012022
:104A100000E000207047014600200A6802F0010211
:104A20000AB1012000E000207047014600204A69D9
:104A300002F03800704730B503460A4600200024D3
:104A4000464DAB4202D24149103901E04349103989
:104A500002F000550DB14C6800E00C68414D2C404F
:104A600004EA02050DB1012000E0002030BD02463D
:104A70003A4B9A4202D23548103801E03748103894
:104A800001F000531BB1374B0B40C36002E0354BC4
:104A90000B408360704710B501F080034BB122B129
:104AA000436943F08003436103E0436923F08003DB
:104AB000436180290BD02AB1036801F01E0423430F
:104AC000036004E0036801F01E04A343036010BD0B
:104AD00070B50246002000240025204EB24202D2CA
:104AE0001A4B103B01E01D4B103B1F4E0E4036B1E0
:104AF0001E2606EAD124166806EA040502E0566975
:104B000006F0800501F000560EB15C6800E01C68FC
:104B1000144E344004EA010616B10DB1012000E044
:104B2000002070BD02460D4B9A4202D20748103851
:104B300001E00A48103801F000531BB1094B0B404B
:104B4000C36002E0074B0B40836070471060024077
:104B50003D000020400F002000003D201064024076
:104B60003F801CF07D0F7D0F3C0F3C0F00F10801D2
:104B700041604FF0FF31816000F10801C1600161C7
:104B800000210160704700210161704742684A605E
:104B900093688B60936859609160086103685B1C3F
:104BA0000360704710B502460B685C1C0CB91069B5
:104BB00007E002F1080000E04068446824689C4275
:104BC000FAD944684C604C68A160886041600A6111
:104BD0001468641C146010BD01460A69D1E90130F3
:104BE0009860D1E9010358605068884201D1886813
:104BF0005060002008611068401E10601068704707
:104C000070B505460E462C462CB940F21B12F9A190
:104C1000FEA002F069F902F0B8F8D4E90F1220689A
:104C200001FB020060600020A0632068A060E06BD0
:104C3000401E226C216800FB0210E060FF2084F817
:104C4000440084F845009EB9206908B9012000E0BD
:104C50000020A8B904F1100001F06CFB80B14FF006
:104C60008050EE490860BFF34F8FBFF36F8F07E0AE
:104C700004F11000FFF77AFF04F12400FFF776FF3C
:104C800002F0A6F8012070BD2DE9F04106460D4660
:104C900017469846069C0DB9246000E02760E6633D
:104CA000256401212046FFF7ABFFBDE8F0812DE927
:104CB000F84305460E4690460DB1012000E0002065
:104CC00028B94FF4C472CBA1D0A002F00DF90EB9EF
:104CD000002701E005FB06F707F1480001F09DFE03
:104CE000044644B104F1480943464A463146284641
:104CF0000094FFF7C9FF2046BDE8F88370B504466D
:104D000002F043F894F9455010E0606A08B90120B8
:104D100000E0002038B904F1240001F00BFB18B1C9
:104D200001F0DCFB00E003E0681E45B2002DECDC86
:104D300000BFFF2084F8450002F04AF802F025F891
:104D400094F9445010E0206908B9012000E00020E7
:104D500048B904F1100001F0EDFA08B101F0BEFB12
:104D6000681E45B200E001E0002DECDC00BFFF2032
:104D700084F8440002F02CF870BD70B5054602F0CE
:104D800004F8A86BE96B884201D1012400E00024FB
:104D900002F01EF8204670BD2DE9F04104460F4692
:104DA00015464FF00008A66B206C28B37DB9394634
:104DB000226CA06802F092F9216CA0680844A060FF
:104DC000D4E90110884217D32068A06014E0394666
:104DD000226CE06802F082F9216CE068401AE06021
:104DE0002168E068884203D2216C6068401AE06064
:104DF000022D01D106B1761E701CA0634046BDE8AD
:104E0000F0812DE9FF4383B0064688461D464FF0EA
:104E1000000934462CB940F2D92276A17BA002F0D9
:104E200063F8B8F1000F01D1206C08B9012000E04F
:104E3000002028B940F2DA226EA174A002F054F8E2
:104E4000022D02D1E06B012801D1012000E00020F9
:104E500028B940F2DB2267A16CA002F045F801F00E
:104E600041FB08B9059808B9012000E0002028B9E5
:104E700040F2DE225FA165A002F036F800BF01F02B
:104E800084FFA06BE16B884201D3022D28D12A4612
:104E900041462046FFF780FF0746606A08B90120B7
:104EA00000E0002068B904F1240001F043FA88B161
:104EB0004FF0805059490860BFF34F8FBFF36F8F99
:104EC00008E03FB14FF0805054490860BFF34F8F66
:104ED000BFF36F8F01F07CFF012007B0BDE8F083C6
:104EE000059818B901F074FF0020F6E7B9F1000F3A
:104EF00004D101A801F0A2FA4FF0010901F068FF06
:104F000000F047FE01F041FF94F94400401C10B945
:104F1000002084F8440094F94500401C10B900209A
:104F200084F8450001F054FF05A901A801F098FAA2
:104F3000F0B92046FFF721FFA0B104F11000059958
:104F400001F091F92046FFF7D9FE00F03AFD002864
:104F500095D14FF0805031490860BFF34F8FBFF3B8
:104F60006F8F8CE72046FFF7C9FE00F02AFD86E729
:104F70002046FFF7C3FE00F024FD0020ADE72DE939
:104F8000F05F07468A4690461E463C462CB940F2E2
:104F90009F3218A11DA001F0A7FFBAF1000F01D1A7
:104FA000206C08B9012000E0002028B94FF4687295
:104FB00010A116A001F098FF022E02D1E06B01288B
:104FC00001D1012000E0002028B940F2A13209A15E
:104FD0000EA001F089FF01F02BFF00BF5021EFF37D
:104FE000118081F31188BFF34F8FBFF36F8F00BF24
:104FF000054615E02E2E5C4672656552544F535C93
:105000007372635C71756575652E63004572726FAE
:10501000723A25732C25640D0A00000004ED00E0AF
:10502000A06BE16B884201D3022E23D194F945B0E5
:10503000324651462046FFF7AFFE0BF1010088B91A
:10504000606A08B9012000E0002080B904F1240062
:1050500001F070F958B1B8F1000F08D00120C8F87C
:10506000000004E00BF1010040B284F845004FF06D
:10507000010901E04FF0000900BF85F3118800BF6E
:105080004846BDE8F09F2DE9F04706460F463446F6
:105090003CB940F23C42AFF2A401AFF2900001F003
:1050A00023FF206C08B9012000E0002038B94FF43C
:1050B0008862AFF2C001AFF2AC0001F015FF2068CA
:1050C00008B9606808B9012000E0002038B940F252
:1050D0004542AFF2E001AFF2CC0001F005FF01F074
:1050E000A7FE00BF5021EFF3118081F31188BFF3B9
:1050F0004F8FBFF36F8F00BF0546D4F83890E06B39
:1051000048451ED994F945A009F10100A0630AF1B0
:10511000010070B9606A08B9012000E0002068B998
:1051200004F1240001F006F940B13FB101203860DC
:1051300004E00AF1010040B284F845004FF0010894
:1051400001E04FF0000800BF85F3118800BF404622
:10515000BDE8F08770B5054601F017FEA86B08B9E9
:10516000012400E0002401F033FE204670BD70B53C
:1051700004460D46206C70B1216CE0680844E06084
:105180006168E068884201D32068E0602846226CAC
:10519000E16801F0A3FF70BD2DE9FF4782B005462D
:1051A0000E461F464FF0000A2C463CB940F2DC4246
:1051B000AFF2C011AFF2AC1001F096FE0EB9206C48
:1051C00008B9012000E0002038B940F2DD42AFF21A
:1051D000DC11AFF2C81001F087FE01F083F908B9C5
:1051E000049808B9012000E0002038B94FF49C620F
:1051F000AFF20021AFF2EC1001F076FE00BF01F03B
:10520000C4FDD4F83890B9F1000F38D0D4F80C8030
:1052100031462046FFF7ABFFB7B9A9F10100A06303
:10522000206908B9012000E0002010BB04F1100043
:1052300001F080F8E8B14FF08050E7490860BFF313
:105240004F8FBFF36F8F14E0C4F80C80606A08B909
:10525000012000E0002060B904F1240001F06AF8A8
:1052600038B14FF08050DC490860BFF34F8FBFF377
:105270006F8F01F0ADFD012006B0BDE8F087049806
:1052800018B901F0A5FD0020F6E7BAF1000F04D12E
:10529000684601F0D3F84FF0010A01F099FD00F0E3
:1052A00078FC01F072FD94F94400401C10B9002014
:1052B00084F8440094F94500401C10B9002084F89B
:1052C000450001F085FD04A9684601F0C9F8F0B970
:1052D0002046FFF73FFFA0B104F12400049900F03D
:1052E000C2FF2046FFF70AFD00F06BFB002886D1C5
:1052F0004FF08050B8490860BFF34F8FBFF36F8FF6
:105300007DE72046FFF7FAFC00F05BFB77E72046DD
:10531000FFF7F4FC00F055FB2046FFF71BFF0028C9
:10532000EED00020A8E72DE9F05F06468946174633
:1053300034463CB94FF4B462AFF24831AFF2343086
:1053400001F0D2FDB9F1000F01D1206C08B90120A4
:1053500000E0002038B940F2A152AFF26831AFF25C
:10536000543001F0C1FD01F063FD00BF5021EFF3A7
:10537000118081F31188BFF34F8FBFF36F8F00BF90
:105380000546D4F838A0BAF1000F22D094F944B001
:1053900049462046FFF7EBFEAAF10100A0630BF19E
:1053A000010070B9206908B9012000E0002068B947
:1053B00004F1100000F0BEFF40B13FB101203860A1
:1053C00004E00BF1010040B284F844004FF0010802
:1053D00001E04FF0000800BF85F3118800BF404690
:1053E000BDE8F09F2DE9F0470646884634463CB9B3
:1053F00040F2FC52AFF20441AFF2F03001F074FD24
:10540000B8F1000F01D1206C08B9012000E00020A4
:1054100038B940F2FD52AFF22441AFF2104001F032
:1054200063FD206C08B1012000E0002038B940F293
:10543000FE52AFF24041AFF22C4001F055FD01F0B9
:10544000F7FC00BF5021EFF3118081F31188BFF307
:105450004F8FBFF36F8F00BF0546A06B48B1D4F8E4
:105460000C9041462046FFF782FEC4F80C900127BD
:1054700000E0002700BF85F3118800BF3846BDE873
:10548000F08770B504463CB940F22F62AFF29C4100
:10549000AFF2884001F028FD01F077FCA56B01F028
:1054A00097FC284670BD70B5044625463DB940F2CC
:1054B0004162AFF2C041AFF2AC4001F015FD01F026
:1054C00064FCD5E90E10461A01F082FC304670BD2E
:1054D00070B504463CB940F25162AFF2E841AFF218
:1054E000D44001F001FDA56B284670BD01460020A7
:1054F0000EE03A4A02EBC00252688A4207D100220B
:10550000364B43F8302003EBC0035A6002E0401CE6
:105510000A28EED300BF704770B5044625463DB952
:1055200040F25D62AFF23451AFF2205001F0DCFC8A
:105530002846FFF7DBFF284601F0F2FA70BD70B590
:1055400005463DB940F29372AFF25851AFF2445064
:1055500001F0CAFCA86B08B9012400E00024204631
:1055600070BD70B504463CB940F2BA72AFF27C51DE
:10557000AFF2685001F0B8FCA06BE16B884201D13A
:10558000012500E00025284670BD024600200BE002
:10559000124B53F8303033B9104B43F8301003EB53
:1055A000C0035A6002E0401C0A28F1D300BF7047D4
:1055B0000246002000210AE0084B03EBC1035B68B0
:1055C000934203D1054B53F8310002E0491C0A29EC
:1055D000F2D300BF7047000004ED00E0C00C0020D3
:1055E00010B5002407E004EB8401FE4A02EB8100C1
:1055F000FFF7BCFA641C202CF5D3FB48FFF7B6FA82
:10560000FA48FFF7B3FAFA48FFF7B0FAF948FFF79C
:10561000ADFAF948FFF7AAFAF348F8490860F348E9
:10562000F749086010BD10B5044601F0AEFBF5481F
:105630000068401CF3490860F348006840B9F2482C
:1056400004600846006801280DD1FFF7C9FF0AE091
:10565000EE48006838B9EC480068C06AE16A8842E0
:1056600001D8E9480460EA480068401CE84908603D
:1056700094F82C1001208840E64909680843E54960
:105680000860E16A01EB8101D64A02EB8100211D2D
:10569000FFF77CFA01F09CFBDC48006868B1DA484F
:1056A0000068C06AE16A884207D24FF08050DA4948
:1056B0000860BFF34F8FBFF36F8F10BD2DE9FF5F01
:1056C00081460E469246DDE90E7B109CAAF1010050
:1056D000216B01EB800828F0070808F0070008B9E3
:1056E000012000E0002028B940F22B32CBA1D1A04C
:1056F00001F0FAFB002507E0715D04F1340041552B
:10570000705D00B902E06D1C102DF5D300BF0021C3
:1057100043200155202F00D31F27E762201DFFF7EC
:1057200032FA04F11800FFF72EFA2461C7F12000C5
:10573000A06164620020606484F8480049464046E5
:10574000039A01F070FA2060BBF1000F01D0CBF892
:105750000040BDE8FF9F2DE9FF4F85B08046894698
:105760001746DDE912ABB80001F057F9064656B10D
:105770004C2001F052F904460CB1266304E0304697
:1057800001F0CEF900E000247CB10020CDE900ABAF
:10579000CDE902403A4649464046089BFFF78EFF56
:1057A0002046FFF740FF012501E04FF0FF35284676
:1057B00009B0BDE8F08F91490968096809B901216C
:1057C00000E0002121B14FF0FF319E4A116006E058
:1057D0008A490968C968C8689A4A4168116070476F
:1057E00010B50446206B01F09BF9204601F098F9B2
:1057F00010BD70B5054601F0C8FA15B982480068B9
:1058000000E028460446201DFFF7E6F978B9E06A73
:1058100000EB8000734951F8200040B994F82C1037
:10582000012088407B49096881437A480160A06A69
:1058300018B104F11800FFF7CFF975480068401C53
:105840007349086070480068844209D1211D694885
:10585000FFF79CF97C480068401C7B49086009E020
:1058600068480068401E674908602046FFF7B8FF97
:10587000FFF7A1FF01F0ACFA64480068C0B16248CC
:105880000068844214D17148006808B9012000E022
:10589000002028B940F2654260A166A001F024FB17
:1058A0004FF080505C490860BFF34F8FBFF36F8F9C
:1058B00070BD2DE9F0414FF00008644800680028F1
:1058C00072D163480068451C61480560EDB94B48DA
:1058D0000068006808B9012000E0002028B940F6FF
:1058E000D9124EA153A001F0FFFA4448076844487A
:1058F0000068424908604248076056480068401CFA
:1059000054490860FFF757FF00BF4E4800688542C2
:105910003CD300BF39480068006808B9012000E0A6
:10592000002020B14FF0FF30464908602DE0334899
:105930000068C068C4686668B54202D24148066023
:1059400023E0201DFFF748F9A06A18B104F1180000
:10595000FFF742F994F82C10012088402D4909687E
:1059600008432C490860E16A01EB81011D4A02EB02
:105970008100211DFFF70AF92349E06A0968C96A15
:105980008842C7D34FF00108C4E700BF1E48006833
:10599000C06A00EB8000134951F82000012801D9AA
:1059A0004FF0010805E0FFE72B480068401C2A493A
:1059B00008602A48006808B14FF001084046BDE879
:1059C000F08170B5002400262048006828B94FF403
:1059D000FD6212A117A001F087FA01F0D6F91B4869
:1059E00000683DE0100D0020900F0020A40F002063
:1059F000B80F0020CC0F0020E00F0020DC080020B2
:105A0000E0080020E8080020D8080020F408002062
:105A100004090020F008002004ED00E02E2E5C4672
:105A200072656552544F535C7372635C7461736B3F
:105A3000732E63004572726F723A25732C25640DC4
:105A40000A00000008090020E408002010090020D6
:105A5000EC08002000090020F8080020FC080020C5
:105A6000401EFE4908600846006800284FD1FC48E7
:105A7000006800284BD024E0FA48C068C46804F1EC
:105A80001800FFF7A9F8201DFFF7A6F894F82C10CE
:105A900001208840F44909680843F3490860E16A35
:105AA00001EB8101F14A02EB8100211DFFF76EF845
:105AB000EF49E06A0968C96A884202D30120ED49CA
:105AC0000860E848006808B9012000E000200028CC
:105AD000D2D00CB1FFF76FFEE748056865B100BF93
